{
  "contractName": "_Insurengine",
  "abi": [
    {
      "inputs": [
        {
          "internalType": "address",
          "name": "vHubAddress",
          "type": "address"
        }
      ],
      "stateMutability": "nonpayable",
      "type": "constructor"
    },
    {
      "inputs": [
        {
          "internalType": "uint256",
          "name": "",
          "type": "uint256"
        }
      ],
      "name": "applications",
      "outputs": [
        {
          "internalType": "address",
          "name": "applicant",
          "type": "address"
        },
        {
          "internalType": "string",
          "name": "whatToInsure",
          "type": "string"
        },
        {
          "internalType": "uint256",
          "name": "estimatedCost",
          "type": "uint256"
        },
        {
          "internalType": "uint256",
          "name": "applicationTime",
          "type": "uint256"
        },
        {
          "internalType": "uint256",
          "name": "toApproveCount",
          "type": "uint256"
        },
        {
          "internalType": "uint256",
          "name": "toDenyCount",
          "type": "uint256"
        },
        {
          "internalType": "uint256",
          "name": "finalDecision",
          "type": "uint256"
        },
        {
          "internalType": "string",
          "name": "reasonForDenial",
          "type": "string"
        },
        {
          "internalType": "uint256",
          "name": "applicationID",
          "type": "uint256"
        },
        {
          "internalType": "uint256",
          "name": "prequelID",
          "type": "uint256"
        }
      ],
      "stateMutability": "view",
      "type": "function",
      "constant": true
    },
    {
      "inputs": [],
      "name": "hashuranceToken",
      "outputs": [
        {
          "internalType": "contract HashuranceToken",
          "name": "",
          "type": "address"
        }
      ],
      "stateMutability": "view",
      "type": "function",
      "constant": true
    },
    {
      "inputs": [],
      "name": "networkTypeBSC",
      "outputs": [
        {
          "internalType": "bool",
          "name": "",
          "type": "bool"
        }
      ],
      "stateMutability": "view",
      "type": "function",
      "constant": true
    },
    {
      "inputs": [
        {
          "internalType": "uint256",
          "name": "",
          "type": "uint256"
        }
      ],
      "name": "policyArchieve",
      "outputs": [
        {
          "internalType": "contract Policy",
          "name": "",
          "type": "address"
        }
      ],
      "stateMutability": "view",
      "type": "function",
      "constant": true
    },
    {
      "inputs": [],
      "name": "validatorsHub",
      "outputs": [
        {
          "internalType": "contract voteNvalidate",
          "name": "",
          "type": "address"
        }
      ],
      "stateMutability": "view",
      "type": "function",
      "constant": true
    },
    {
      "inputs": [
        {
          "internalType": "uint256",
          "name": "applId",
          "type": "uint256"
        }
      ],
      "name": "getAppication",
      "outputs": [
        {
          "components": [
            {
              "internalType": "address",
              "name": "applicant",
              "type": "address"
            },
            {
              "internalType": "string",
              "name": "whatToInsure",
              "type": "string"
            },
            {
              "internalType": "uint256",
              "name": "estimatedCost",
              "type": "uint256"
            },
            {
              "internalType": "uint256",
              "name": "applicationTime",
              "type": "uint256"
            },
            {
              "internalType": "uint256",
              "name": "toApproveCount",
              "type": "uint256"
            },
            {
              "internalType": "uint256",
              "name": "toDenyCount",
              "type": "uint256"
            },
            {
              "internalType": "uint256",
              "name": "finalDecision",
              "type": "uint256"
            },
            {
              "internalType": "string",
              "name": "reasonForDenial",
              "type": "string"
            },
            {
              "internalType": "uint256",
              "name": "applicationID",
              "type": "uint256"
            },
            {
              "internalType": "uint256",
              "name": "prequelID",
              "type": "uint256"
            }
          ],
          "internalType": "struct _Insurengine.ApplicationForm",
          "name": "",
          "type": "tuple"
        }
      ],
      "stateMutability": "view",
      "type": "function",
      "constant": true
    },
    {
      "inputs": [
        {
          "internalType": "address",
          "name": "policyAddress",
          "type": "address"
        },
        {
          "components": [
            {
              "internalType": "uint256",
              "name": "blockNumber",
              "type": "uint256"
            },
            {
              "internalType": "address",
              "name": "from_",
              "type": "address"
            },
            {
              "internalType": "address",
              "name": "to_",
              "type": "address"
            },
            {
              "internalType": "address",
              "name": "receiver",
              "type": "address"
            },
            {
              "internalType": "uint256",
              "name": "paymentTime",
              "type": "uint256"
            },
            {
              "internalType": "uint256",
              "name": "value",
              "type": "uint256"
            },
            {
              "internalType": "uint256",
              "name": "transactionHash",
              "type": "uint256"
            }
          ],
          "internalType": "struct _Insurengine.receiptTemplate",
          "name": "receipt",
          "type": "tuple"
        },
        {
          "internalType": "uint256",
          "name": "direction",
          "type": "uint256"
        }
      ],
      "name": "submitPremium",
      "outputs": [
        {
          "internalType": "bool",
          "name": "",
          "type": "bool"
        }
      ],
      "stateMutability": "nonpayable",
      "type": "function"
    },
    {
      "inputs": [
        {
          "internalType": "string",
          "name": "insuring",
          "type": "string"
        },
        {
          "internalType": "uint256",
          "name": "cost",
          "type": "uint256"
        },
        {
          "internalType": "uint256",
          "name": "prequel",
          "type": "uint256"
        },
        {
          "components": [
            {
              "internalType": "uint256",
              "name": "blockNumber",
              "type": "uint256"
            },
            {
              "internalType": "address",
              "name": "from_",
              "type": "address"
            },
            {
              "internalType": "address",
              "name": "to_",
              "type": "address"
            },
            {
              "internalType": "address",
              "name": "receiver",
              "type": "address"
            },
            {
              "internalType": "uint256",
              "name": "paymentTime",
              "type": "uint256"
            },
            {
              "internalType": "uint256",
              "name": "value",
              "type": "uint256"
            },
            {
              "internalType": "uint256",
              "name": "transactionHash",
              "type": "uint256"
            }
          ],
          "internalType": "struct _Insurengine.receiptTemplate",
          "name": "receipt",
          "type": "tuple"
        }
      ],
      "name": "applyForInsurance",
      "outputs": [
        {
          "internalType": "bool",
          "name": "",
          "type": "bool"
        }
      ],
      "stateMutability": "nonpayable",
      "type": "function"
    },
    {
      "inputs": [
        {
          "internalType": "uint256",
          "name": "aFormID",
          "type": "uint256"
        },
        {
          "internalType": "uint256",
          "name": "decision",
          "type": "uint256"
        },
        {
          "internalType": "string",
          "name": "reason",
          "type": "string"
        }
      ],
      "name": "prepForInspection",
      "outputs": [
        {
          "internalType": "bool",
          "name": "",
          "type": "bool"
        }
      ],
      "stateMutability": "nonpayable",
      "type": "function"
    },
    {
      "inputs": [
        {
          "internalType": "address",
          "name": "policyAddress",
          "type": "address"
        },
        {
          "internalType": "uint256",
          "name": "decision",
          "type": "uint256"
        },
        {
          "internalType": "string",
          "name": "reason",
          "type": "string"
        }
      ],
      "name": "prepForClaimInspection",
      "outputs": [
        {
          "internalType": "bool",
          "name": "",
          "type": "bool"
        }
      ],
      "stateMutability": "nonpayable",
      "type": "function"
    },
    {
      "inputs": [
        {
          "internalType": "uint256",
          "name": "applId",
          "type": "uint256"
        }
      ],
      "name": "createPolicy",
      "outputs": [],
      "stateMutability": "nonpayable",
      "type": "function"
    },
    {
      "inputs": [
        {
          "internalType": "address",
          "name": "policyAddress",
          "type": "address"
        }
      ],
      "name": "claimInsurance",
      "outputs": [],
      "stateMutability": "nonpayable",
      "type": "function"
    },
    {
      "inputs": [
        {
          "internalType": "address",
          "name": "policyAddress",
          "type": "address"
        }
      ],
      "name": "withdrawFromPolicy",
      "outputs": [],
      "stateMutability": "nonpayable",
      "type": "function"
    },
    {
      "inputs": [],
      "name": "checkNetwork",
      "outputs": [
        {
          "internalType": "bool",
          "name": "",
          "type": "bool"
        }
      ],
      "stateMutability": "view",
      "type": "function",
      "constant": true
    },
    {
      "inputs": [],
      "name": "getHashTokenName",
      "outputs": [
        {
          "internalType": "string",
          "name": "",
          "type": "string"
        }
      ],
      "stateMutability": "view",
      "type": "function",
      "constant": true
    }
  ],
  "bytecode": "0x60806040526001600260146101000a81548160ff0219169083151502179055503480156200002c57600080fd5b5060405162006c5938038062006c59833981810160405281019062000052919062000137565b33604051620000619062000112565b6200006d919062000174565b604051809103906000f0801580156200008a573d6000803e3d6000fd5b506000806101000a81548173ffffffffffffffffffffffffffffffffffffffff021916908373ffffffffffffffffffffffffffffffffffffffff16021790555080600260006101000a81548173ffffffffffffffffffffffffffffffffffffffff021916908373ffffffffffffffffffffffffffffffffffffffff16021790555050620001df565b611f078062004d5283390190565b6000815190506200013181620001c5565b92915050565b6000602082840312156200014a57600080fd5b60006200015a8482850162000120565b91505092915050565b6200016e8162000191565b82525050565b60006020820190506200018b600083018462000163565b92915050565b60006200019e82620001a5565b9050919050565b600073ffffffffffffffffffffffffffffffffffffffff82169050919050565b620001d08162000191565b8114620001dc57600080fd5b50565b614b6380620001ef6000396000f3fe60806040523480156200001157600080fd5b50600436106200010c5760003560e01c80638af4787111620000a5578063dfefadff116200006f578063dfefadff14620002bd578063e7d3eb8314620002fc578063f5791f061462000332578063f6d6b35f1462000368576200010c565b80638af478711462000237578063a0345cf11462000259578063d6d64473146200027b578063dad867fb146200029d576200010c565b80632cc4f63211620000e75780632cc4f63214620001875780632f1cb1e914620001a957806361c5a24f14620001df57806366d09fd41462000201576200010c565b806304bd12bb14620001115780631239c27114620001315780631c7243db1462000151575b600080fd5b6200012f6004803603810190620001299190620029da565b6200039e565b005b6200014f60048036038101906200014991906200276c565b62000919565b005b6200016f600480360381019062000169919062002a32565b62000a99565b6040516200017e91906200305a565b60405180910390f35b6200019162000fe0565b604051620001a0919062003077565b60405180910390f35b620001c76004803603810190620001c19190620027c4565b62001004565b604051620001d691906200305a565b60405180910390f35b620001e962001315565b604051620001f891906200305a565b60405180910390f35b6200021f6004803603810190620002199190620029da565b6200132c565b6040516200022e91906200317a565b60405180910390f35b6200024162001568565b604051620002509190620030ce565b60405180910390f35b6200026362001616565b604051620002729190620030b1565b60405180910390f35b620002856200163c565b6040516200029491906200305a565b60405180910390f35b620002bb6004803603810190620002b591906200276c565b6200164f565b005b620002db6004803603810190620002d59190620029da565b62001902565b604051620002f39a9998979695949392919062002e9e565b60405180910390f35b6200031a60048036038101906200031491906200281c565b62001aa7565b6040516200032991906200305a565b60405180910390f35b6200035060048036038101906200034a9190620029da565b62001e38565b6040516200035f919062003094565b60405180910390f35b62000386600480360381019062000380919062002928565b62001e78565b6040516200039591906200305a565b60405180910390f35b600060038281548110620003db577f4e487b7100000000000000000000000000000000000000000000000000000000600052603260045260246000fd5b90600052602060002090600a0201604051806101400160405290816000820160009054906101000a900473ffffffffffffffffffffffffffffffffffffffff1673ffffffffffffffffffffffffffffffffffffffff1673ffffffffffffffffffffffffffffffffffffffff1681526020016001820180546200045d90620034a1565b80601f01602080910402602001604051908101604052809291908181526020018280546200048b90620034a1565b8015620004dc5780601f10620004b057610100808354040283529160200191620004dc565b820191906000526020600020905b815481529060010190602001808311620004be57829003601f168201915b5050505050815260200160028201548152602001600382015481526020016004820154815260200160058201548152602001600682015481526020016007820180546200052990620034a1565b80601f01602080910402602001604051908101604052809291908181526020018280546200055790620034a1565b8015620005a85780601f106200057c57610100808354040283529160200191620005a8565b820191906000526020600020905b8154815290600101906020018083116200058a57829003601f168201915b50505050508152602001600882015481526020016009820154815250509050806000015173ffffffffffffffffffffffffffffffffffffffff163373ffffffffffffffffffffffffffffffffffffffff16146200063c576040517f08c379a0000000000000000000000000000000000000000000000000000000008152600401620006339062003158565b60405180910390fd5b60048160c001511462000686576040517f08c379a00000000000000000000000000000000000000000000000000000000081526004016200067d9062003114565b60405180910390fd5b60008060009054906101000a900473ffffffffffffffffffffffffffffffffffffffff1673ffffffffffffffffffffffffffffffffffffffff1663b63e6ac3846040518263ffffffff1660e01b8152600401620006e491906200319e565b60e06040518083038186803b158015620006fd57600080fd5b505afa15801562000712573d6000803e3d6000fd5b505050506040513d601f19601f82011682018060405250810190620007389190620029ae565b90506000826000015184846020015185604001518560a00151866080015160008054906101000a900473ffffffffffffffffffffffffffffffffffffffff16604051620007859062002257565b62000797979695949392919062002f89565b604051809103906000f080158015620007b4573d6000803e3d6000fd5b5090508073ffffffffffffffffffffffffffffffffffffffff166369d9c0326040518163ffffffff1660e01b8152600401600060405180830381600087803b1580156200080057600080fd5b505af115801562000815573d6000803e3d6000fd5b505050506001819080600181540180825580915050600190039060005260206000200160009091909190916101000a81548173ffffffffffffffffffffffffffffffffffffffff021916908373ffffffffffffffffffffffffffffffffffffffff16021790555060008054906101000a900473ffffffffffffffffffffffffffffffffffffffff1673ffffffffffffffffffffffffffffffffffffffff1663ebbee1ec85838560a001516040518463ffffffff1660e01b8152600401620008df93929190620031bb565b600060405180830381600087803b158015620008fa57600080fd5b505af11580156200090f573d6000803e3d6000fd5b5050505050505050565b60008190508073ffffffffffffffffffffffffffffffffffffffff1663168426566040518163ffffffff1660e01b815260040160206040518083038186803b1580156200096557600080fd5b505afa1580156200097a573d6000803e3d6000fd5b505050506040513d601f19601f82011682018060405250810190620009a0919062002798565b73ffffffffffffffffffffffffffffffffffffffff163373ffffffffffffffffffffffffffffffffffffffff161462000a10576040517f08c379a000000000000000000000000000000000000000000000000000000000815260040162000a0790620030f2565b60405180910390fd5b8073ffffffffffffffffffffffffffffffffffffffff16634e71d92d6040518163ffffffff1660e01b8152600401602060405180830381600087803b15801562000a5957600080fd5b505af115801562000a6e573d6000803e3d6000fd5b505050506040513d601f19601f8201168201806040525081019062000a949190620028b7565b505050565b6000806003858154811062000ad7577f4e487b7100000000000000000000000000000000000000000000000000000000600052603260045260246000fd5b90600052602060002090600a0201604051806101400160405290816000820160009054906101000a900473ffffffffffffffffffffffffffffffffffffffff1673ffffffffffffffffffffffffffffffffffffffff1673ffffffffffffffffffffffffffffffffffffffff16815260200160018201805462000b5990620034a1565b80601f016020809104026020016040519081016040528092919081815260200182805462000b8790620034a1565b801562000bd85780601f1062000bac5761010080835404028352916020019162000bd8565b820191906000526020600020905b81548152906001019060200180831162000bba57829003601f168201915b50505050508152602001600282015481526020016003820154815260200160048201548152602001600582015481526020016006820154815260200160078201805462000c2590620034a1565b80601f016020809104026020016040519081016040528092919081815260200182805462000c5390620034a1565b801562000ca45780601f1062000c785761010080835404028352916020019162000ca4565b820191906000526020600020905b81548152906001019060200180831162000c8657829003601f168201915b50505050508152602001600882015481526020016009820154815250509050828160e001819052506000600260009054906101000a900473ffffffffffffffffffffffffffffffffffffffff1673ffffffffffffffffffffffffffffffffffffffff16633045960b878785608001518660a001516040518563ffffffff1660e01b815260040162000d39949392919062003290565b606060405180830381600087803b15801562000d5457600080fd5b505af115801562000d69573d6000803e3d6000fd5b505050506040513d601f19601f8201168201806040525081019062000d8f91906200288b565b90508060006003811062000dcc577f4e487b7100000000000000000000000000000000000000000000000000000000600052603260045260246000fd5b60200201518260800181815250508060016003811062000e15577f4e487b7100000000000000000000000000000000000000000000000000000000600052603260045260246000fd5b60200201518260a00181815250508060026003811062000e5e577f4e487b7100000000000000000000000000000000000000000000000000000000600052603260045260246000fd5b60200201518260c001818152505060048260c00151141562000eb9576040518060400160405280600381526020017f4e2f4100000000000000000000000000000000000000000000000000000000008152508260e001819052505b816003878154811062000ef5577f4e487b7100000000000000000000000000000000000000000000000000000000600052603260045260246000fd5b90600052602060002090600a020160008201518160000160006101000a81548173ffffffffffffffffffffffffffffffffffffffff021916908373ffffffffffffffffffffffffffffffffffffffff160217905550602082015181600101908051906020019062000f6892919062002265565b5060408201518160020155606082015181600301556080820151816004015560a0820151816005015560c0820151816006015560e082015181600701908051906020019062000fb992919062002265565b50610100820151816008015561012082015181600901559050506001925050509392505050565b60008054906101000a900473ffffffffffffffffffffffffffffffffffffffff1681565b60004283608001818152505060008054906101000a900473ffffffffffffffffffffffffffffffffffffffff1673ffffffffffffffffffffffffffffffffffffffff1663a9059cbb858560a001516040518363ffffffff1660e01b81526004016200107192919062002f5c565b602060405180830381600087803b1580156200108c57600080fd5b505af1158015620010a1573d6000803e3d6000fd5b505050506040513d601f19601f82011682018060405250810190620010c79190620028b7565b5060008490508073ffffffffffffffffffffffffffffffffffffffff1663343a2e7585608001518660a001516040518363ffffffff1660e01b81526004016200111292919062003226565b600060405180830381600087803b1580156200112d57600080fd5b505af115801562001142573d6000803e3d6000fd5b505050506003831415620013095760008054906101000a900473ffffffffffffffffffffffffffffffffffffffff1673ffffffffffffffffffffffffffffffffffffffff166323b872dd868373ffffffffffffffffffffffffffffffffffffffff1663168426566040518163ffffffff1660e01b815260040160206040518083038186803b158015620011d457600080fd5b505afa158015620011e9573d6000803e3d6000fd5b505050506040513d601f19601f820116820180604052508101906200120f919062002798565b8473ffffffffffffffffffffffffffffffffffffffff1663af125c8a6040518163ffffffff1660e01b815260040160206040518083038186803b1580156200125657600080fd5b505afa1580156200126b573d6000803e3d6000fd5b505050506040513d601f19601f8201168201806040525081019062001291919062002a06565b6040518463ffffffff1660e01b8152600401620012b19392919062002e61565b602060405180830381600087803b158015620012cc57600080fd5b505af1158015620012e1573d6000803e3d6000fd5b505050506040513d601f19601f82011682018060405250810190620013079190620028b7565b505b60019150509392505050565b6000600260149054906101000a900460ff16905090565b62001336620022f6565b60006003838154811062001373577f4e487b7100000000000000000000000000000000000000000000000000000000600052603260045260246000fd5b90600052602060002090600a0201604051806101400160405290816000820160009054906101000a900473ffffffffffffffffffffffffffffffffffffffff1673ffffffffffffffffffffffffffffffffffffffff1673ffffffffffffffffffffffffffffffffffffffff168152602001600182018054620013f590620034a1565b80601f01602080910402602001604051908101604052809291908181526020018280546200142390620034a1565b8015620014745780601f10620014485761010080835404028352916020019162001474565b820191906000526020600020905b8154815290600101906020018083116200145657829003601f168201915b505050505081526020016002820154815260200160038201548152602001600482015481526020016005820154815260200160068201548152602001600782018054620014c190620034a1565b80601f0160208091040260200160405190810160405280929190818152602001828054620014ef90620034a1565b8015620015405780601f10620015145761010080835404028352916020019162001540565b820191906000526020600020905b8154815290600101906020018083116200152257829003601f168201915b5050505050815260200160088201548152602001600982015481525050905080915050919050565b606060008054906101000a900473ffffffffffffffffffffffffffffffffffffffff1673ffffffffffffffffffffffffffffffffffffffff1663862b092b6040518163ffffffff1660e01b815260040160006040518083038186803b158015620015d157600080fd5b505afa158015620015e6573d6000803e3d6000fd5b505050506040513d6000823e3d601f19601f82011682018060405250810190620016119190620028e3565b905090565b600260009054906101000a900473ffffffffffffffffffffffffffffffffffffffff1681565b600260149054906101000a900460ff1681565b60008190508073ffffffffffffffffffffffffffffffffffffffff1663168426566040518163ffffffff1660e01b815260040160206040518083038186803b1580156200169b57600080fd5b505afa158015620016b0573d6000803e3d6000fd5b505050506040513d601f19601f82011682018060405250810190620016d6919062002798565b73ffffffffffffffffffffffffffffffffffffffff163373ffffffffffffffffffffffffffffffffffffffff161462001746576040517f08c379a00000000000000000000000000000000000000000000000000000000081526004016200173d9062003136565b60405180910390fd5b60008054906101000a900473ffffffffffffffffffffffffffffffffffffffff1673ffffffffffffffffffffffffffffffffffffffff166323b872dd828373ffffffffffffffffffffffffffffffffffffffff1663168426566040518163ffffffff1660e01b815260040160206040518083038186803b158015620017ca57600080fd5b505afa158015620017df573d6000803e3d6000fd5b505050506040513d601f19601f8201168201806040525081019062001805919062002798565b8473ffffffffffffffffffffffffffffffffffffffff1663af125c8a6040518163ffffffff1660e01b815260040160206040518083038186803b1580156200184c57600080fd5b505afa15801562001861573d6000803e3d6000fd5b505050506040513d601f19601f8201168201806040525081019062001887919062002a06565b6040518463ffffffff1660e01b8152600401620018a79392919062002e61565b602060405180830381600087803b158015620018c257600080fd5b505af1158015620018d7573d6000803e3d6000fd5b505050506040513d601f19601f82011682018060405250810190620018fd9190620028b7565b505050565b600381815481106200191357600080fd5b90600052602060002090600a02016000915090508060000160009054906101000a900473ffffffffffffffffffffffffffffffffffffffff16908060010180546200195e90620034a1565b80601f01602080910402602001604051908101604052809291908181526020018280546200198c90620034a1565b8015620019dd5780601f10620019b157610100808354040283529160200191620019dd565b820191906000526020600020905b815481529060010190602001808311620019bf57829003601f168201915b50505050509080600201549080600301549080600401549080600501549080600601549080600701805462001a1290620034a1565b80601f016020809104026020016040519081016040528092919081815260200182805462001a4090620034a1565b801562001a915780601f1062001a655761010080835404028352916020019162001a91565b820191906000526020600020905b81548152906001019060200180831162001a7357829003601f168201915b505050505090806008015490806009015490508a565b6000808490506000600260009054906101000a900473ffffffffffffffffffffffffffffffffffffffff1673ffffffffffffffffffffffffffffffffffffffff16630cef66ce87878573ffffffffffffffffffffffffffffffffffffffff16638080d3076040518163ffffffff1660e01b815260040160206040518083038186803b15801562001b3657600080fd5b505afa15801562001b4b573d6000803e3d6000fd5b505050506040513d601f19601f8201168201806040525081019062001b71919062002a06565b8673ffffffffffffffffffffffffffffffffffffffff166331b8214d6040518163ffffffff1660e01b815260040160206040518083038186803b15801562001bb857600080fd5b505afa15801562001bcd573d6000803e3d6000fd5b505050506040513d601f19601f8201168201806040525081019062001bf3919062002a06565b6040518563ffffffff1660e01b815260040162001c1494939291906200300d565b606060405180830381600087803b15801562001c2f57600080fd5b505af115801562001c44573d6000803e3d6000fd5b505050506040513d601f19601f8201168201806040525081019062001c6a91906200288b565b90508173ffffffffffffffffffffffffffffffffffffffff16636f9c29c68260006003811062001cc3577f4e487b7100000000000000000000000000000000000000000000000000000000600052603260045260246000fd5b60200201518360016003811062001d03577f4e487b7100000000000000000000000000000000000000000000000000000000600052603260045260246000fd5b60200201518460026003811062001d43577f4e487b7100000000000000000000000000000000000000000000000000000000600052603260045260246000fd5b60200201516040518463ffffffff1660e01b815260040162001d689392919062003253565b600060405180830381600087803b15801562001d8357600080fd5b505af115801562001d98573d6000803e3d6000fd5b505050508173ffffffffffffffffffffffffffffffffffffffff1663889f59b260008054906101000a900473ffffffffffffffffffffffffffffffffffffffff166040518263ffffffff1660e01b815260040162001df7919062002e44565b600060405180830381600087803b15801562001e1257600080fd5b505af115801562001e27573d6000803e3d6000fd5b505050506001925050509392505050565b6001818154811062001e4957600080fd5b906000526020600020016000915054906101000a900473ffffffffffffffffffffffffffffffffffffffff1681565b60004282608001818152505060008054906101000a900473ffffffffffffffffffffffffffffffffffffffff1673ffffffffffffffffffffffffffffffffffffffff16636c79e4b660038054905062001ed18562002160565b6040518363ffffffff1660e01b815260040162001ef0929190620031f8565b600060405180830381600087803b15801562001f0b57600080fd5b505af115801562001f20573d6000803e3d6000fd5b5050505060006040518061014001604052803373ffffffffffffffffffffffffffffffffffffffff1681526020018781526020018681526020014281526020016000815260200160008152602001600081526020016040518060400160405280600381526020017f4e2f4100000000000000000000000000000000000000000000000000000000008152508152602001600380549050815260200185815250905060038190806001815401808255809150506001900390600052602060002090600a020160009091909190915060008201518160000160006101000a81548173ffffffffffffffffffffffffffffffffffffffff021916908373ffffffffffffffffffffffffffffffffffffffff16021790555060208201518160010190805190602001906200205292919062002265565b5060408201518160020155606082015181600301556080820151816004015560a0820151816005015560c0820151816006015560e0820151816007019080519060200190620020a392919062002265565b50610100820151816008015561012082015181600901555050600260009054906101000a900473ffffffffffffffffffffffffffffffffffffffff1673ffffffffffffffffffffffffffffffffffffffff1663dec66ecf338560a001516040518363ffffffff1660e01b81526004016200211f92919062002f5c565b600060405180830381600087803b1580156200213a57600080fd5b505af11580156200214f573d6000803e3d6000fd5b505050506001915050949350505050565b6200216a6200235f565b620021746200235f565b8260200151816020019073ffffffffffffffffffffffffffffffffffffffff16908173ffffffffffffffffffffffffffffffffffffffff16815250508260400151816040019073ffffffffffffffffffffffffffffffffffffffff16908173ffffffffffffffffffffffffffffffffffffffff1681525050428160800181815250508260600151816060019073ffffffffffffffffffffffffffffffffffffffff16908173ffffffffffffffffffffffffffffffffffffffff16815250508260a001518160a00181815250508260c001518160c001818152505080915050919050565b611599806200359583390190565b8280546200227390620034a1565b90600052602060002090601f016020900481019282620022975760008555620022e3565b82601f10620022b257805160ff1916838001178555620022e3565b82800160010185558215620022e3579182015b82811115620022e2578251825591602001919060010190620022c5565b5b509050620022f29190620023de565b5090565b604051806101400160405280600073ffffffffffffffffffffffffffffffffffffffff1681526020016060815260200160008152602001600081526020016000815260200160008152602001600081526020016060815260200160008152602001600081525090565b6040518060e0016040528060008152602001600073ffffffffffffffffffffffffffffffffffffffff168152602001600073ffffffffffffffffffffffffffffffffffffffff168152602001600073ffffffffffffffffffffffffffffffffffffffff1681526020016000815260200160008152602001600081525090565b5b80821115620023f9576000816000905550600101620023df565b5090565b6000620024146200240e8462003311565b620032dd565b905080828560208602820111156200242b57600080fd5b60005b858110156200245f578162002444888262002755565b8452602084019350602083019250506001810190506200242e565b5050509392505050565b6000620024806200247a846200333a565b620032dd565b9050828152602081018484840111156200249957600080fd5b620024a68482856200345c565b509392505050565b6000620024c5620024bf846200333a565b620032dd565b905082815260208101848484011115620024de57600080fd5b620024eb8482856200346b565b509392505050565b600081359050620025048162003546565b92915050565b6000815190506200251b8162003546565b92915050565b600082601f8301126200253357600080fd5b600362002542848285620023fd565b91505092915050565b6000815190506200255c8162003560565b92915050565b600082601f8301126200257457600080fd5b81356200258684826020860162002469565b91505092915050565b600082601f830112620025a157600080fd5b8151620025b3848260208601620024ae565b91505092915050565b600060e08284031215620025cf57600080fd5b620025db60e0620032dd565b90506000620025ed848285016200273e565b60008301525060206200260384828501620024f3565b60208301525060406200261984828501620024f3565b60408301525060606200262f84828501620024f3565b606083015250608062002645848285016200273e565b60808301525060a06200265b848285016200273e565b60a08301525060c062002671848285016200273e565b60c08301525092915050565b600060e082840312156200269057600080fd5b6200269c60e0620032dd565b90506000620026ae8482850162002755565b6000830152506020620026c4848285016200250a565b6020830152506040620026da848285016200250a565b6040830152506060620026f0848285016200250a565b6060830152506080620027068482850162002755565b60808301525060a06200271c8482850162002755565b60a08301525060c0620027328482850162002755565b60c08301525092915050565b6000813590506200274f816200357a565b92915050565b60008151905062002766816200357a565b92915050565b6000602082840312156200277f57600080fd5b60006200278f84828501620024f3565b91505092915050565b600060208284031215620027ab57600080fd5b6000620027bb848285016200250a565b91505092915050565b60008060006101208486031215620027db57600080fd5b6000620027eb86828701620024f3565b9350506020620027fe86828701620025bc565b92505061010062002812868287016200273e565b9150509250925092565b6000806000606084860312156200283257600080fd5b60006200284286828701620024f3565b935050602062002855868287016200273e565b925050604084013567ffffffffffffffff8111156200287357600080fd5b620028818682870162002562565b9150509250925092565b6000606082840312156200289e57600080fd5b6000620028ae8482850162002521565b91505092915050565b600060208284031215620028ca57600080fd5b6000620028da848285016200254b565b91505092915050565b600060208284031215620028f657600080fd5b600082015167ffffffffffffffff8111156200291157600080fd5b6200291f848285016200258f565b91505092915050565b60008060008061014085870312156200294057600080fd5b600085013567ffffffffffffffff8111156200295b57600080fd5b620029698782880162002562565b94505060206200297c878288016200273e565b93505060406200298f878288016200273e565b9250506060620029a287828801620025bc565b91505092959194509250565b600060e08284031215620029c157600080fd5b6000620029d1848285016200267d565b91505092915050565b600060208284031215620029ed57600080fd5b6000620029fd848285016200273e565b91505092915050565b60006020828403121562002a1957600080fd5b600062002a298482850162002755565b91505092915050565b60008060006060848603121562002a4857600080fd5b600062002a58868287016200273e565b935050602062002a6b868287016200273e565b925050604084013567ffffffffffffffff81111562002a8957600080fd5b62002a978682870162002562565b9150509250925092565b62002aac816200339a565b82525050565b62002abd816200339a565b82525050565b62002ace81620033ae565b82525050565b62002adf81620033e4565b82525050565b62002af0816200340c565b82525050565b62002b018162003434565b82525050565b600062002b14826200336d565b62002b20818562003378565b935062002b328185602086016200346b565b62002b3d8162003535565b840191505092915050565b600062002b55826200336d565b62002b61818562003389565b935062002b738185602086016200346b565b62002b7e8162003535565b840191505092915050565b600062002b98600d8362003389565b91507f43616e6e6f7420636c61696d21000000000000000000000000000000000000006000830152602082019050919050565b600062002bda600c8362003389565b91507f4e6f7420617070726f76656400000000000000000000000000000000000000006000830152602082019050919050565b600062002c1c600b8362003389565b91507f52657374726963746564210000000000000000000000000000000000000000006000830152602082019050919050565b600062002c5e60118362003389565b91507f4e6f7420746865206170706c6963616e740000000000000000000000000000006000830152602082019050919050565b60006101408301600083015162002cac600086018262002aa1565b506020830151848203602086015262002cc6828262002b07565b915050604083015162002cdd604086018262002e22565b50606083015162002cf2606086018262002e22565b50608083015162002d07608086018262002e22565b5060a083015162002d1c60a086018262002e22565b5060c083015162002d3160c086018262002e22565b5060e083015184820360e086015262002d4b828262002b07565b91505061010083015162002d6461010086018262002e22565b5061012083015162002d7b61012086018262002e22565b508091505092915050565b60e08201600082015162002d9e600085018262002e22565b50602082015162002db3602085018262002aa1565b50604082015162002dc8604085018262002aa1565b50606082015162002ddd606085018262002aa1565b50608082015162002df2608085018262002e22565b5060a082015162002e0760a085018262002e22565b5060c082015162002e1c60c085018262002e22565b50505050565b62002e2d81620033da565b82525050565b62002e3e81620033da565b82525050565b600060208201905062002e5b600083018462002ab2565b92915050565b600060608201905062002e78600083018662002ab2565b62002e87602083018562002ab2565b62002e96604083018462002e33565b949350505050565b60006101408201905062002eb6600083018d62002ab2565b818103602083015262002eca818c62002b48565b905062002edb604083018b62002e33565b62002eea606083018a62002e33565b62002ef9608083018962002e33565b62002f0860a083018862002e33565b62002f1760c083018762002e33565b81810360e083015262002f2b818662002b48565b905062002f3d61010083018562002e33565b62002f4d61012083018462002e33565b9b9a5050505050505050505050565b600060408201905062002f73600083018562002ab2565b62002f82602083018462002e33565b9392505050565b600060e08201905062002fa0600083018a62002ab2565b62002faf602083018962002e33565b818103604083015262002fc3818862002b48565b905062002fd4606083018762002e33565b62002fe3608083018662002e33565b62002ff260a083018562002e33565b6200300160c083018462002ab2565b98975050505050505050565b600060808201905062003024600083018762002ab2565b62003033602083018662002e33565b62003042604083018562002e33565b62003051606083018462002e33565b95945050505050565b600060208201905062003071600083018462002ac3565b92915050565b60006020820190506200308e600083018462002ad4565b92915050565b6000602082019050620030ab600083018462002ae5565b92915050565b6000602082019050620030c8600083018462002af6565b92915050565b60006020820190508181036000830152620030ea818462002b48565b905092915050565b600060208201905081810360008301526200310d8162002b89565b9050919050565b600060208201905081810360008301526200312f8162002bcb565b9050919050565b60006020820190508181036000830152620031518162002c0d565b9050919050565b60006020820190508181036000830152620031738162002c4f565b9050919050565b6000602082019050818103600083015262003196818462002c91565b905092915050565b6000602082019050620031b5600083018462002e33565b92915050565b6000606082019050620031d2600083018662002e33565b620031e1602083018562002ab2565b620031f0604083018462002e33565b949350505050565b60006101008201905062003210600083018562002e33565b6200321f602083018462002d86565b9392505050565b60006040820190506200323d600083018562002e33565b6200324c602083018462002e33565b9392505050565b60006060820190506200326a600083018662002e33565b62003279602083018562002e33565b62003288604083018462002e33565b949350505050565b6000608082019050620032a7600083018762002e33565b620032b6602083018662002e33565b620032c5604083018562002e33565b620032d4606083018462002e33565b95945050505050565b6000604051905081810181811067ffffffffffffffff8211171562003307576200330662003506565b5b8060405250919050565b600067ffffffffffffffff8211156200332f576200332e62003506565b5b602082029050919050565b600067ffffffffffffffff82111562003358576200335762003506565b5b601f19601f8301169050602081019050919050565b600081519050919050565b600082825260208201905092915050565b600082825260208201905092915050565b6000620033a782620033ba565b9050919050565b60008115159050919050565b600073ffffffffffffffffffffffffffffffffffffffff82169050919050565b6000819050919050565b6000620033f182620033f8565b9050919050565b60006200340582620033ba565b9050919050565b6000620034198262003420565b9050919050565b60006200342d82620033ba565b9050919050565b6000620034418262003448565b9050919050565b60006200345582620033ba565b9050919050565b82818337600083830152505050565b60005b838110156200348b5780820151818401526020810190506200346e565b838111156200349b576000848401525b50505050565b60006002820490506001821680620034ba57607f821691505b60208210811415620034d157620034d0620034d7565b5b50919050565b7f4e487b7100000000000000000000000000000000000000000000000000000000600052602260045260246000fd5b7f4e487b7100000000000000000000000000000000000000000000000000000000600052604160045260246000fd5b6000601f19601f8301169050919050565b62003551816200339a565b81146200355d57600080fd5b50565b6200356b81620033ae565b81146200357757600080fd5b50565b6200358581620033da565b81146200359157600080fd5b5056fe60806040523480156200001157600080fd5b50604051620015993803806200159983398181016040528101906200003791906200029e565b86600160006101000a81548173ffffffffffffffffffffffffffffffffffffffff021916908373ffffffffffffffffffffffffffffffffffffffff160217905550856000819055508460029080519060200190620000979291906200014e565b50426003819055508360048190555082600560008481526020019081526020016000208190555062278d00600354620000d19190620003cb565b600a81905550600683908060018154018082558091505060019003906000526020600020016000909190919091505580600760006101000a81548173ffffffffffffffffffffffffffffffffffffffff021916908373ffffffffffffffffffffffffffffffffffffffff1602179055505050505050505062000593565b8280546200015c906200049c565b90600052602060002090601f016020900481019282620001805760008555620001cc565b82601f106200019b57805160ff1916838001178555620001cc565b82800160010185558215620001cc579182015b82811115620001cb578251825591602001919060010190620001ae565b5b509050620001db9190620001df565b5090565b5b80821115620001fa576000816000905550600101620001e0565b5090565b6000620002156200020f8462000398565b62000364565b9050828152602081018484840111156200022e57600080fd5b6200023b84828562000466565b509392505050565b60008151905062000254816200055f565b92915050565b600082601f8301126200026c57600080fd5b81516200027e848260208601620001fe565b91505092915050565b600081519050620002988162000579565b92915050565b600080600080600080600060e0888a031215620002ba57600080fd5b6000620002ca8a828b0162000243565b9750506020620002dd8a828b0162000287565b965050604088015167ffffffffffffffff811115620002fb57600080fd5b620003098a828b016200025a565b95505060606200031c8a828b0162000287565b94505060806200032f8a828b0162000287565b93505060a0620003428a828b0162000287565b92505060c0620003558a828b0162000243565b91505092959891949750929550565b6000604051905081810181811067ffffffffffffffff821117156200038e576200038d62000530565b5b8060405250919050565b600067ffffffffffffffff821115620003b657620003b562000530565b5b601f19601f8301169050602081019050919050565b6000620003d8826200045c565b9150620003e5836200045c565b9250827fffffffffffffffffffffffffffffffffffffffffffffffffffffffffffffffff038211156200041d576200041c620004d2565b5b828201905092915050565b600062000435826200043c565b9050919050565b600073ffffffffffffffffffffffffffffffffffffffff82169050919050565b6000819050919050565b60005b838110156200048657808201518184015260208101905062000469565b8381111562000496576000848401525b50505050565b60006002820490506001821680620004b557607f821691505b60208210811415620004cc57620004cb62000501565b5b50919050565b7f4e487b7100000000000000000000000000000000000000000000000000000000600052601160045260246000fd5b7f4e487b7100000000000000000000000000000000000000000000000000000000600052602260045260246000fd5b7f4e487b7100000000000000000000000000000000000000000000000000000000600052604160045260246000fd5b6200056a8162000428565b81146200057657600080fd5b50565b62000584816200045c565b81146200059057600080fd5b50565b610ff680620005a36000396000f3fe608060405234801561001057600080fd5b506004361061018e5760003560e01c80638080d307116100de578063a3f82eb811610097578063d474b9ce11610071578063d474b9ce14610443578063d5f92b1b14610461578063de36e39c1461047f578063e5901ea11461049d5761018e565b8063a3f82eb8146103d7578063af125c8a146103f5578063aff06064146104135761018e565b80638080d30714610313578063889f59b2146103315780638efa77461461034d57806390c6b18a1461036b57806393873b481461038957806396fd1b5c146103a75761018e565b80635d5463131161014b578063680418461161012557806368041846146102b157806369d9c032146102cf5780636de84ae9146102d95780636f9c29c6146102f75761018e565b80635d5463131461024557806360a9903414610263578063658bb5e5146102935761018e565b8063168426561461019357806331b8214d146101b1578063343a2e75146101cf57806338271924146101eb5780634e71d92d1461020957806359cbd20714610227575b600080fd5b61019b6104bb565b6040516101a89190610cfd565b60405180910390f35b6101b96104e1565b6040516101c69190610d9e565b60405180910390f35b6101e960048036038101906101e49190610bcc565b6104e7565b005b6101f3610565565b6040516102009190610d5c565b60405180910390f35b610211610611565b60405161021e9190610d41565b60405180910390f35b61022f6106cf565b60405161023c9190610d9e565b60405180910390f35b61024d6106d5565b60405161025a9190610d9e565b60405180910390f35b61027d60048036038101906102789190610ba3565b6106db565b60405161028a9190610d9e565b60405180910390f35b61029b6106ff565b6040516102a89190610d9e565b60405180910390f35b6102b9610705565b6040516102c69190610d9e565b60405180910390f35b6102d761070b565b005b6102e1610744565b6040516102ee9190610cfd565b60405180910390f35b610311600480360381019061030c9190610c08565b61076a565b005b61031b6107d7565b6040516103289190610d9e565b60405180910390f35b61034b60048036038101906103469190610b51565b6107dd565b005b6103556108c1565b6040516103629190610d5c565b60405180910390f35b61037361094f565b6040516103809190610d9e565b60405180910390f35b610391610955565b60405161039e9190610d9e565b60405180910390f35b6103c160048036038101906103bc9190610ba3565b61095f565b6040516103ce9190610d9e565b60405180910390f35b6103df610983565b6040516103ec9190610cfd565b60405180910390f35b6103fd6109ad565b60405161040a9190610d9e565b60405180910390f35b61042d60048036038101906104289190610ba3565b6109b3565b60405161043a9190610d9e565b60405180910390f35b61044b6109cb565b6040516104589190610d9e565b60405180910390f35b6104696109d1565b6040516104769190610d9e565b60405180910390f35b6104876109d7565b6040516104949190610d9e565b60405180910390f35b6104a56109e1565b6040516104b29190610d5c565b60405180910390f35b600160009054906101000a900473ffffffffffffffffffffffffffffffffffffffff1681565b600e5481565b600160009054906101000a900473ffffffffffffffffffffffffffffffffffffffff1673ffffffffffffffffffffffffffffffffffffffff163373ffffffffffffffffffffffffffffffffffffffff161461054157600080fd5b80600560008481526020019081526020016000208190555061056161070b565b5050565b606062278d00600354426105799190610e2b565b11156105bc576040518060400160405280600781526020017f496e76616c696400000000000000000000000000000000000000000000000000815250905061060e565b62278d00600354426105ce9190610e2b565b101561060d576040518060400160405280600581526020017f56616c696400000000000000000000000000000000000000000000000000000081525090505b5b90565b6000600160009054906101000a900473ffffffffffffffffffffffffffffffffffffffff1673ffffffffffffffffffffffffffffffffffffffff163373ffffffffffffffffffffffffffffffffffffffff16146106a3576040517f08c379a000000000000000000000000000000000000000000000000000000000815260040161069a90610d7e565b60405180910390fd5b600c42908060018154018082558091505060019003906000526020600020016000909190919091505590565b60095481565b600a5481565b600c81815481106106eb57600080fd5b906000526020600020016000915090505481565b60005481565b600b5481565b600c6008819055506096600981905550600a544211156107425762278d00600a600082825461073a9190610dd5565b925050819055505b565b600760009054906101000a900473ffffffffffffffffffffffffffffffffffffffff1681565b6000600c805490501161077c57600080fd5b60048114156107d2576040518060400160405280600381526020017f4e2f410000000000000000000000000000000000000000000000000000000000815250601090805190602001906107d0929190610a6f565b505b505050565b600d5481565b6000600c80549050116107ef57600080fd5b60008190506004546006805490501161080b5760c86009819055505b8073ffffffffffffffffffffffffffffffffffffffff1663095ea7b3600160009054906101000a900473ffffffffffffffffffffffffffffffffffffffff166004546040518363ffffffff1660e01b815260040161086a929190610d18565b602060405180830381600087803b15801561088457600080fd5b505af1158015610898573d6000803e3d6000fd5b505050506040513d601f19601f820116820180604052508101906108bc9190610b7a565b505050565b600280546108ce90610eda565b80601f01602080910402602001604051908101604052809291908181526020018280546108fa90610eda565b80156109475780601f1061091c57610100808354040283529160200191610947565b820191906000526020600020905b81548152906001019060200180831161092a57829003601f168201915b505050505081565b60035481565b6000600a54905090565b6006818154811061096f57600080fd5b906000526020600020016000915090505481565b6000600160009054906101000a900473ffffffffffffffffffffffffffffffffffffffff16905090565b60045481565b60056020528060005260406000206000915090505481565b600f5481565b60085481565b6000600954905090565b601080546109ee90610eda565b80601f0160208091040260200160405190810160405280929190818152602001828054610a1a90610eda565b8015610a675780601f10610a3c57610100808354040283529160200191610a67565b820191906000526020600020905b815481529060010190602001808311610a4a57829003601f168201915b505050505081565b828054610a7b90610eda565b90600052602060002090601f016020900481019282610a9d5760008555610ae4565b82601f10610ab657805160ff1916838001178555610ae4565b82800160010185558215610ae4579182015b82811115610ae3578251825591602001919060010190610ac8565b5b509050610af19190610af5565b5090565b5b80821115610b0e576000816000905550600101610af6565b5090565b600081359050610b2181610f7b565b92915050565b600081519050610b3681610f92565b92915050565b600081359050610b4b81610fa9565b92915050565b600060208284031215610b6357600080fd5b6000610b7184828501610b12565b91505092915050565b600060208284031215610b8c57600080fd5b6000610b9a84828501610b27565b91505092915050565b600060208284031215610bb557600080fd5b6000610bc384828501610b3c565b91505092915050565b60008060408385031215610bdf57600080fd5b6000610bed85828601610b3c565b9250506020610bfe85828601610b3c565b9150509250929050565b600080600060608486031215610c1d57600080fd5b6000610c2b86828701610b3c565b9350506020610c3c86828701610b3c565b9250506040610c4d86828701610b3c565b9150509250925092565b610c6081610e5f565b82525050565b610c6f81610e71565b82525050565b6000610c8082610db9565b610c8a8185610dc4565b9350610c9a818560208601610ea7565b610ca381610f6a565b840191505092915050565b6000610cbb600e83610dc4565b91507f43616e6e6f7420636c61696d21210000000000000000000000000000000000006000830152602082019050919050565b610cf781610e9d565b82525050565b6000602082019050610d126000830184610c57565b92915050565b6000604082019050610d2d6000830185610c57565b610d3a6020830184610cee565b9392505050565b6000602082019050610d566000830184610c66565b92915050565b60006020820190508181036000830152610d768184610c75565b905092915050565b60006020820190508181036000830152610d9781610cae565b9050919050565b6000602082019050610db36000830184610cee565b92915050565b600081519050919050565b600082825260208201905092915050565b6000610de082610e9d565b9150610deb83610e9d565b9250827fffffffffffffffffffffffffffffffffffffffffffffffffffffffffffffffff03821115610e2057610e1f610f0c565b5b828201905092915050565b6000610e3682610e9d565b9150610e4183610e9d565b925082821015610e5457610e53610f0c565b5b828203905092915050565b6000610e6a82610e7d565b9050919050565b60008115159050919050565b600073ffffffffffffffffffffffffffffffffffffffff82169050919050565b6000819050919050565b60005b83811015610ec5578082015181840152602081019050610eaa565b83811115610ed4576000848401525b50505050565b60006002820490506001821680610ef257607f821691505b60208210811415610f0657610f05610f3b565b5b50919050565b7f4e487b7100000000000000000000000000000000000000000000000000000000600052601160045260246000fd5b7f4e487b7100000000000000000000000000000000000000000000000000000000600052602260045260246000fd5b6000601f19601f8301169050919050565b610f8481610e5f565b8114610f8f57600080fd5b50565b610f9b81610e71565b8114610fa657600080fd5b50565b610fb281610e9d565b8114610fbd57600080fd5b5056fea26469706673582212208843a33931edab0c0526e144a2010bc967ee3b687feef8804e33e07dfc1f708164736f6c63430008000033a2646970667358221220a76175b048e5536b1037ec5f65e25f97745aa72c83f5cd3a58484c1d795f8a0564736f6c6343000800003360806040526040518060400160405280601081526020017f486173687572616e636520546f6b656e0000000000000000000000000000000081525060019080519060200190620000519291906200019b565b506040518060400160405280600481526020017f4853485400000000000000000000000000000000000000000000000000000000815250600290805190602001906200009f9291906200019b565b506a01bcb13a657b26388000006003556012600560006101000a81548160ff021916908360ff160217905550348015620000d857600080fd5b5060405162001f0738038062001f078339818101604052810190620000fe919062000262565b806000806101000a81548173ffffffffffffffffffffffffffffffffffffffff021916908373ffffffffffffffffffffffffffffffffffffffff160217905550600354600760008373ffffffffffffffffffffffffffffffffffffffff1673ffffffffffffffffffffffffffffffffffffffff16815260200190815260200160002081905550600060048190555060006006819055505062000341565b828054620001a990620002c2565b90600052602060002090601f016020900481019282620001cd576000855562000219565b82601f10620001e857805160ff191683800117855562000219565b8280016001018555821562000219579182015b8281111562000218578251825591602001919060010190620001fb565b5b5090506200022891906200022c565b5090565b5b80821115620002475760008160009055506001016200022d565b5090565b6000815190506200025c8162000327565b92915050565b6000602082840312156200027557600080fd5b600062000285848285016200024b565b91505092915050565b60006200029b82620002a2565b9050919050565b600073ffffffffffffffffffffffffffffffffffffffff82169050919050565b60006002820490506001821680620002db57607f821691505b60208210811415620002f257620002f1620002f8565b5b50919050565b7f4e487b7100000000000000000000000000000000000000000000000000000000600052602260045260246000fd5b62000332816200028e565b81146200033e57600080fd5b50565b611bb680620003516000396000f3fe608060405234801561001057600080fd5b50600436106101375760003560e01c80635c658165116100b85780639358928b1161007c5780639358928b1461036e57806395d89b411461038c578063a9059cbb146103aa578063b63e6ac3146103da578063dd62ed3e1461040a578063ebbee1ec1461043a57610137565b80635c658165146102b657806363bedff6146102e65780636c79e4b61461030457806370a0823114610320578063862b092b1461035057610137565b806323b872dd116100ff57806323b872dd146101fc57806327e235e31461022c578063313ce5671461025c578063324536eb1461027a5780635275dadc1461029857610137565b806302d3bd161461013c57806306fdde031461015a578063095ea7b3146101785780630f7ee1ec146101a857806318160ddd146101de575b600080fd5b610144610456565b604051610151919061187e565b60405180910390f35b61016261045c565b60405161016f9190611841565b60405180910390f35b610192600480360381019061018d91906115f9565b6104ea565b60405161019f9190611826565b60405180910390f35b6101c260048036038101906101bd9190611635565b6105dc565b6040516101d59796959493929190611899565b60405180910390f35b6101e661067e565b6040516101f3919061187e565b60405180910390f35b610216600480360381019061021191906115aa565b610688565b6040516102239190611826565b60405180910390f35b61024660048036038101906102419190611545565b6109ef565b604051610253919061187e565b60405180910390f35b610264610a07565b6040516102719190611908565b60405180910390f35b610282610a1a565b60405161028f919061187e565b60405180910390f35b6102a0610a20565b6040516102ad919061180b565b60405180910390f35b6102d060048036038101906102cb919061156e565b610a44565b6040516102dd919061187e565b60405180910390f35b6102ee610a69565b6040516102fb919061187e565b60405180910390f35b61031e600480360381019061031991906116ad565b610a6f565b005b61033a60048036038101906103359190611545565b610d6d565b604051610347919061187e565b60405180910390f35b610358610db6565b6040516103659190611841565b60405180910390f35b610376610e48565b604051610383919061187e565b60405180910390f35b610394610e52565b6040516103a19190611841565b60405180910390f35b6103c460048036038101906103bf91906115f9565b610ee0565b6040516103d19190611826565b60405180910390f35b6103f460048036038101906103ef9190611635565b611163565b6040516104019190611863565b60405180910390f35b610424600480360381019061041f919061156e565b6112ba565b604051610431919061187e565b60405180910390f35b610454600480360381019061044f919061165e565b611341565b005b60045481565b6001805461046990611a82565b80601f016020809104026020016040519081016040528092919081815260200182805461049590611a82565b80156104e25780601f106104b7576101008083540402835291602001916104e2565b820191906000526020600020905b8154815290600101906020018083116104c557829003601f168201915b505050505081565b600081600860003373ffffffffffffffffffffffffffffffffffffffff1673ffffffffffffffffffffffffffffffffffffffff16815260200190815260200160002060008573ffffffffffffffffffffffffffffffffffffffff1673ffffffffffffffffffffffffffffffffffffffff168152602001908152602001600020819055508273ffffffffffffffffffffffffffffffffffffffff163373ffffffffffffffffffffffffffffffffffffffff167f8c5be1e5ebec7d5bd14f71427d1e84f3dd0314c0f7b2291e5b200ac8c7c3b925846040516105ca919061187e565b60405180910390a36001905092915050565b60096020528060005260406000206000915090508060000154908060010160009054906101000a900473ffffffffffffffffffffffffffffffffffffffff16908060020160009054906101000a900473ffffffffffffffffffffffffffffffffffffffff16908060030160009054906101000a900473ffffffffffffffffffffffffffffffffffffffff16908060040154908060050154908060060154905087565b6000600354905090565b6000600760008573ffffffffffffffffffffffffffffffffffffffff1673ffffffffffffffffffffffffffffffffffffffff168152602001908152602001600020548211156106d657600080fd5b600860008573ffffffffffffffffffffffffffffffffffffffff1673ffffffffffffffffffffffffffffffffffffffff16815260200190815260200160002060003373ffffffffffffffffffffffffffffffffffffffff1673ffffffffffffffffffffffffffffffffffffffff1681526020019081526020016000205482111561075f57600080fd5b81600760008673ffffffffffffffffffffffffffffffffffffffff1673ffffffffffffffffffffffffffffffffffffffff16815260200190815260200160002060008282546107ae91906119c6565b9250508190555081600760008573ffffffffffffffffffffffffffffffffffffffff1673ffffffffffffffffffffffffffffffffffffffff16815260200190815260200160002060008282546108049190611970565b9250508190555081600860008673ffffffffffffffffffffffffffffffffffffffff1673ffffffffffffffffffffffffffffffffffffffff16815260200190815260200160002060003373ffffffffffffffffffffffffffffffffffffffff1673ffffffffffffffffffffffffffffffffffffffff168152602001908152602001600020600082825461089791906119c6565b9250508190555060008054906101000a900473ffffffffffffffffffffffffffffffffffffffff1673ffffffffffffffffffffffffffffffffffffffff168473ffffffffffffffffffffffffffffffffffffffff1614156109105781600460008282546109049190611970565b9250508190555061097f565b60008054906101000a900473ffffffffffffffffffffffffffffffffffffffff1673ffffffffffffffffffffffffffffffffffffffff168373ffffffffffffffffffffffffffffffffffffffff16141561097e57816004600082825461097691906119c6565b925050819055505b5b8273ffffffffffffffffffffffffffffffffffffffff168473ffffffffffffffffffffffffffffffffffffffff167fddf252ad1be2c89b69c2b068fc378daa952ba7f163c4a11628f55a4df523b3ef846040516109dc919061187e565b60405180910390a3600190509392505050565b60076020528060005260406000206000915090505481565b600560009054906101000a900460ff1681565b60035481565b60008054906101000a900473ffffffffffffffffffffffffffffffffffffffff1681565b6008602052816000526040600020602052806000526040600020600091509150505481565b60065481565b60008054906101000a900473ffffffffffffffffffffffffffffffffffffffff1673ffffffffffffffffffffffffffffffffffffffff163373ffffffffffffffffffffffffffffffffffffffff1614610ac757600080fd5b60008160a00151905080600760008060009054906101000a900473ffffffffffffffffffffffffffffffffffffffff1673ffffffffffffffffffffffffffffffffffffffff1673ffffffffffffffffffffffffffffffffffffffff168152602001908152602001600020541015610b3d57600080fd5b81600960008581526020019081526020016000206000820151816000015560208201518160010160006101000a81548173ffffffffffffffffffffffffffffffffffffffff021916908373ffffffffffffffffffffffffffffffffffffffff16021790555060408201518160020160006101000a81548173ffffffffffffffffffffffffffffffffffffffff021916908373ffffffffffffffffffffffffffffffffffffffff16021790555060608201518160030160006101000a81548173ffffffffffffffffffffffffffffffffffffffff021916908373ffffffffffffffffffffffffffffffffffffffff1602179055506080820151816004015560a0820151816005015560c082015181600601559050508060066000828254610c639190611970565b9250508190555080600760008060009054906101000a900473ffffffffffffffffffffffffffffffffffffffff1673ffffffffffffffffffffffffffffffffffffffff1673ffffffffffffffffffffffffffffffffffffffff1681526020019081526020016000206000828254610cda91906119c6565b925050819055508060046000828254610cf39190611970565b9250508190555060008054906101000a900473ffffffffffffffffffffffffffffffffffffffff1673ffffffffffffffffffffffffffffffffffffffff167f6102287f605478258a2642398d5267cdbd022f0e4d3b21339d8c9a3f541a4f3182604051610d60919061187e565b60405180910390a2505050565b6000600760008373ffffffffffffffffffffffffffffffffffffffff1673ffffffffffffffffffffffffffffffffffffffff168152602001908152602001600020549050919050565b606060018054610dc590611a82565b80601f0160208091040260200160405190810160405280929190818152602001828054610df190611a82565b8015610e3e5780601f10610e1357610100808354040283529160200191610e3e565b820191906000526020600020905b815481529060010190602001808311610e2157829003601f168201915b5050505050905090565b6000600454905090565b60028054610e5f90611a82565b80601f0160208091040260200160405190810160405280929190818152602001828054610e8b90611a82565b8015610ed85780601f10610ead57610100808354040283529160200191610ed8565b820191906000526020600020905b815481529060010190602001808311610ebb57829003601f168201915b505050505081565b60008273ffffffffffffffffffffffffffffffffffffffff163373ffffffffffffffffffffffffffffffffffffffff161415610f1b57600080fd5b81600760003373ffffffffffffffffffffffffffffffffffffffff1673ffffffffffffffffffffffffffffffffffffffff168152602001908152602001600020541015610f6757600080fd5b81600760003373ffffffffffffffffffffffffffffffffffffffff1673ffffffffffffffffffffffffffffffffffffffff1681526020019081526020016000206000828254610fb691906119c6565b9250508190555081600760008573ffffffffffffffffffffffffffffffffffffffff1673ffffffffffffffffffffffffffffffffffffffff168152602001908152602001600020600082825461100c9190611970565b9250508190555060008054906101000a900473ffffffffffffffffffffffffffffffffffffffff1673ffffffffffffffffffffffffffffffffffffffff163373ffffffffffffffffffffffffffffffffffffffff1614156110855781600460008282546110799190611970565b925050819055506110f4565b60008054906101000a900473ffffffffffffffffffffffffffffffffffffffff1673ffffffffffffffffffffffffffffffffffffffff168373ffffffffffffffffffffffffffffffffffffffff1614156110f35781600460008282546110eb91906119c6565b925050819055505b5b8273ffffffffffffffffffffffffffffffffffffffff163373ffffffffffffffffffffffffffffffffffffffff167fddf252ad1be2c89b69c2b068fc378daa952ba7f163c4a11628f55a4df523b3ef84604051611151919061187e565b60405180910390a36001905092915050565b61116b6113ec565b600960008381526020019081526020016000206040518060e0016040529081600082015481526020016001820160009054906101000a900473ffffffffffffffffffffffffffffffffffffffff1673ffffffffffffffffffffffffffffffffffffffff1673ffffffffffffffffffffffffffffffffffffffff1681526020016002820160009054906101000a900473ffffffffffffffffffffffffffffffffffffffff1673ffffffffffffffffffffffffffffffffffffffff1673ffffffffffffffffffffffffffffffffffffffff1681526020016003820160009054906101000a900473ffffffffffffffffffffffffffffffffffffffff1673ffffffffffffffffffffffffffffffffffffffff1673ffffffffffffffffffffffffffffffffffffffff16815260200160048201548152602001600582015481526020016006820154815250509050919050565b6000600860008473ffffffffffffffffffffffffffffffffffffffff1673ffffffffffffffffffffffffffffffffffffffff16815260200190815260200160002060008373ffffffffffffffffffffffffffffffffffffffff1673ffffffffffffffffffffffffffffffffffffffff16815260200190815260200160002054905092915050565b806006541161134f57600080fd5b60006009600085815260200190815260200160002060010160009054906101000a900473ffffffffffffffffffffffffffffffffffffffff1690503373ffffffffffffffffffffffffffffffffffffffff168173ffffffffffffffffffffffffffffffffffffffff16146113c257600080fd5b81600660008282546113d491906119c6565b925050819055506113e58383610ee0565b5050505050565b6040518060e0016040528060008152602001600073ffffffffffffffffffffffffffffffffffffffff168152602001600073ffffffffffffffffffffffffffffffffffffffff168152602001600073ffffffffffffffffffffffffffffffffffffffff1681526020016000815260200160008152602001600081525090565b60008135905061147a81611b52565b92915050565b600060e0828403121561149257600080fd5b61149c60e0611923565b905060006114ac84828501611530565b60008301525060206114c08482850161146b565b60208301525060406114d48482850161146b565b60408301525060606114e88482850161146b565b60608301525060806114fc84828501611530565b60808301525060a061151084828501611530565b60a08301525060c061152484828501611530565b60c08301525092915050565b60008135905061153f81611b69565b92915050565b60006020828403121561155757600080fd5b60006115658482850161146b565b91505092915050565b6000806040838503121561158157600080fd5b600061158f8582860161146b565b92505060206115a08582860161146b565b9150509250929050565b6000806000606084860312156115bf57600080fd5b60006115cd8682870161146b565b93505060206115de8682870161146b565b92505060406115ef86828701611530565b9150509250925092565b6000806040838503121561160c57600080fd5b600061161a8582860161146b565b925050602061162b85828601611530565b9150509250929050565b60006020828403121561164757600080fd5b600061165584828501611530565b91505092915050565b60008060006060848603121561167357600080fd5b600061168186828701611530565b93505060206116928682870161146b565b92505060406116a386828701611530565b9150509250925092565b60008061010083850312156116c157600080fd5b60006116cf85828601611530565b92505060206116e085828601611480565b9150509250929050565b6116f3816119fa565b82525050565b611702816119fa565b82525050565b61171181611a0c565b82525050565b600061172282611954565b61172c818561195f565b935061173c818560208601611a4f565b61174581611b41565b840191505092915050565b60e08201600082015161176660008501826117de565b50602082015161177960208501826116ea565b50604082015161178c60408501826116ea565b50606082015161179f60608501826116ea565b5060808201516117b260808501826117de565b5060a08201516117c560a08501826117de565b5060c08201516117d860c08501826117de565b50505050565b6117e781611a38565b82525050565b6117f681611a38565b82525050565b61180581611a42565b82525050565b600060208201905061182060008301846116f9565b92915050565b600060208201905061183b6000830184611708565b92915050565b6000602082019050818103600083015261185b8184611717565b905092915050565b600060e0820190506118786000830184611750565b92915050565b600060208201905061189360008301846117ed565b92915050565b600060e0820190506118ae600083018a6117ed565b6118bb60208301896116f9565b6118c860408301886116f9565b6118d560608301876116f9565b6118e260808301866117ed565b6118ef60a08301856117ed565b6118fc60c08301846117ed565b98975050505050505050565b600060208201905061191d60008301846117fc565b92915050565b6000604051905081810181811067ffffffffffffffff8211171561194a57611949611b12565b5b8060405250919050565b600081519050919050565b600082825260208201905092915050565b600061197b82611a38565b915061198683611a38565b9250827fffffffffffffffffffffffffffffffffffffffffffffffffffffffffffffffff038211156119bb576119ba611ab4565b5b828201905092915050565b60006119d182611a38565b91506119dc83611a38565b9250828210156119ef576119ee611ab4565b5b828203905092915050565b6000611a0582611a18565b9050919050565b60008115159050919050565b600073ffffffffffffffffffffffffffffffffffffffff82169050919050565b6000819050919050565b600060ff82169050919050565b60005b83811015611a6d578082015181840152602081019050611a52565b83811115611a7c576000848401525b50505050565b60006002820490506001821680611a9a57607f821691505b60208210811415611aae57611aad611ae3565b5b50919050565b7f4e487b7100000000000000000000000000000000000000000000000000000000600052601160045260246000fd5b7f4e487b7100000000000000000000000000000000000000000000000000000000600052602260045260246000fd5b7f4e487b7100000000000000000000000000000000000000000000000000000000600052604160045260246000fd5b6000601f19601f8301169050919050565b611b5b816119fa565b8114611b6657600080fd5b50565b611b7281611a38565b8114611b7d57600080fd5b5056fea2646970667358221220a03415b4cf1708468e3f41af65895a31b46ebc6c951d82493db597c901728ae064736f6c63430008000033",
  "immutableReferences": {},
  "source": "pragma solidity ^0.8.0;\nimport \"./_validators_hub.sol\"; \nimport \"./Hashurance_T.sol\";        //Imports Hashurance token\nimport \"./policy_contract.sol\";     //Imports policy contract to create and manage policies.\n\ncontract _Insurengine{\n     //Hushurance token contract object.\n    HashuranceToken public hashuranceToken;\n    \n     //Holds the entire policies in the protocol.\n    Policy[] public policyArchieve;\n\n     //Validators hub contract object.\n    voteNvalidate public validatorsHub;\n\n    // to validate if the require network is selected on metamask\n    bool public networkTypeBSC = true;\n\n     //Stores all insurance applications, before they get approved and transformed to a policy.\n    ApplicationForm[] public applications;\n\n  struct ApplicationForm{\n      address applicant;       //Who is applying to be insured\n      string whatToInsure;     // Will convert to bytes later. //What item do you want to insure.\n      uint estimatedCost;      //What's your personal valuaton of this item.\n      uint applicationTime;    //Time of application.\n      uint toApproveCount;     //Number of validators who approved this application.\n      uint toDenyCount;        //Number of validators who declined this application. \n      uint finalDecision;      //0 = not decided, 2 = Declined, 4 = Approved.\n      string reasonForDenial;  //Possible reasons for a rejection.\n      uint applicationID;      //Application Id.\n      uint prequelID;          //Previous application Id if this is a re-application.\n    }\n\n  struct receiptTemplate{\n        uint blockNumber;\n        address from_;\n        address to_;\n        address receiver;\n        uint paymentTime;\n        uint value;\n        uint transactionHash;\n    }\n\n  constructor(address vHubAddress){\n      hashuranceToken = new HashuranceToken(msg.sender); //Creates instance of Hashurance token.\n      validatorsHub = voteNvalidate(vHubAddress);\n      }\n\n  function getAppication(uint applId)public view returns(ApplicationForm memory){\n      ApplicationForm memory form = applications[applId];\n      return form;\n    }\n\n  function submitPremium(address policyAddress, receiptTemplate memory receipt, uint direction)public returns(bool){\n       //Confirm and process funds.\n       receipt.paymentTime = block.timestamp; //Will later change this to the timestamp returned at the front end.\n       hashuranceToken.transfer(policyAddress, receipt.value); //Move HSHT to policy contract.\n       Policy destinationPolicy = Policy(policyAddress);\n       destinationPolicy.logPremiumHistory(receipt.paymentTime, receipt.value);\n       if(direction == 3){ //True when its time to withdraw.\n           //Transfer principal amount of tokens from policy account to holder's account.\n           hashuranceToken.transferFrom(policyAddress, destinationPolicy.policy_Holder(), destinationPolicy.Principal());\n       }\n       return true;\n  }\n\n   //Function to apply for an insurance.\n   // @prequel should be 0 if its a fresh insurance application.\n  function applyForInsurance(string memory insuring, uint cost, uint prequel, receiptTemplate memory receipt) public returns(bool){\n       //Confirm and process funds.\n       receipt.paymentTime = block.timestamp;\n      hashuranceToken.updateDepoPool(applications.length, reformReceipt(receipt));\n\n       //Submit application after successful transfer\n      ApplicationForm memory newApplicationForm = ApplicationForm(msg.sender, insuring, cost, block.timestamp, 0, 0, 0, \"N/A\", applications.length, prequel); //Application form filled, with approved variable set to false.\n      applications.push(newApplicationForm);\n\n       //Add user to validator's court, since he now has hashurance tokens locked within the contract.\n      validatorsHub.addToCourt(msg.sender, receipt.value);/////////////////\n      return true;\n    }\n\n    function reformReceipt(receiptTemplate memory receipt)private view returns(HashuranceToken.receiptTemplate memory){\n      //Transfer BUSD to Hashurance Engine at frontend and wait for a response (transaction hash).\n      //Use the response to create a receipt then call this function.\n\n      //Confirm payment of BUSD from the CALLER of this function (applicant).\n      //Use the response to send (separate and lock) the Hashsurance token equivalent of BUSD that was sent by the applicant.\n      HashuranceToken.receiptTemplate memory receipt_toToken;  //Expensive means, but it can work till we find an alternative. \n      receipt_toToken.from_ = receipt.from_;\n      receipt_toToken.to_ = receipt.to_;\n      receipt_toToken.paymentTime = block.timestamp;\n      receipt_toToken.receiver = receipt.receiver;\n      receipt_toToken.value = receipt.value;\n      receipt_toToken.transactionHash = receipt.transactionHash;\n      return receipt_toToken;\n  }\n\n  function prepForInspection(uint aFormID, uint decision, string memory reason)public returns(bool){\n      ApplicationForm memory aForm = applications[aFormID];\n      aForm.reasonForDenial = reason; //Save the lastest reason, if its not empty.\n      uint[3] memory returnedValues = validatorsHub.inspect(aFormID,decision, aForm.toApproveCount, aForm.toDenyCount);\n      aForm.toApproveCount = returnedValues[0];\n      aForm.toDenyCount = returnedValues[1];\n      aForm.finalDecision = returnedValues[2];\n      if(aForm.finalDecision == 4){\n           //Clear reasons for denial, entered by validators, if the application was approved.\n          aForm.reasonForDenial = \"N/A\";\n      }\n      applications[aFormID] = aForm;\n      return true;\n  }\n\n  function prepForClaimInspection(address policyAddress, uint decision, string memory reason)public returns(bool){\n      Policy destinationPolicy = Policy(policyAddress);\n      uint[3] memory returnedValues = validatorsHub.inspectClaimRequest(\n          policyAddress,\n          decision,\n          destinationPolicy.toApproveCount(),\n          destinationPolicy.toDenyCount());\n      destinationPolicy.enterInspectionResult(returnedValues[0], returnedValues[1], returnedValues[2]);\n      destinationPolicy.prepForWithdrawal(address(hashuranceToken));\n      return true;\n  }\n\n  function createPolicy(uint applId) public{\n      ApplicationForm memory approvedApplication = applications[applId]; //Might conme back to this later.\n      require(msg.sender == approvedApplication.applicant, \"Not the applicant\");\n      require(approvedApplication.finalDecision == 4, \"Not approved\");  //If its approved;\n      HashuranceToken.receiptTemplate memory template = hashuranceToken.getReceipt(applId);\n      Policy policy_ = new Policy(\n          approvedApplication.applicant, \n          applId, \n          approvedApplication.whatToInsure, \n          approvedApplication.estimatedCost,\n          template.value,\n          template.paymentTime,\n          address(hashuranceToken));\n      policy_.computeVariables();\n      policyArchieve.push(policy_);\n       //Release equivalent HSHT funds, previously minted, to newly created policy contract.\n      hashuranceToken.purgeDepoPool(applId, address(policy_), template.value);\n    }\n\n    function claimInsurance(address policyAddress)public{\n        Policy destinationPolicy = Policy(policyAddress);\n         //Ensures the claimer is the holder of this policy.\n        require(msg.sender == destinationPolicy.policy_Holder(), \"Cannot claim!\");\n        destinationPolicy.claim();\n    }\n\n    function withdrawFromPolicy(address policyAddress)public{\n        Policy destinationPolicy = Policy(policyAddress);\n         //Ensures the claimer is the holder of this policy.\n        require(msg.sender == destinationPolicy.policy_Holder(), \"Restricted!\");\n        hashuranceToken.transferFrom(address(destinationPolicy), destinationPolicy.policy_Holder(), destinationPolicy.Principal());\n    }\n\n    // to check network selected\n    function checkNetwork() external view returns(bool) {\n    return networkTypeBSC;\n  }\n\n    // to get token name\nfunction getHashTokenName() external view returns(string memory) {\n    return hashuranceToken.getTokenName();\n      \n  }\n}",
  "sourcePath": "/Users/temitopealabi/Documents/personal/blockchain_training/videos/web3/CryptoInsurance15_demo/contracts/_Hashurance_engine.sol",
  "compiler": {
    "name": "solc",
    "version": "0.8.0+commit.c7dfd78e.Emscripten.clang"
  },
  "schemaVersion": "3.3.4",
  "updatedAt": "2021-04-15T14:19:42.000Z",
  "networkType": "ethereum",
  "devdoc": {
    "kind": "dev",
    "methods": {},
    "version": 1
  },
  "userdoc": {
    "kind": "user",
    "methods": {},
    "version": 1
  }
}