{
  "contractName": "HashuranceToken",
  "abi": [
    {
      "inputs": [
        {
          "internalType": "address",
          "name": "owner",
          "type": "address"
        }
      ],
      "stateMutability": "nonpayable",
      "type": "constructor"
    },
    {
      "anonymous": false,
      "inputs": [
        {
          "indexed": true,
          "internalType": "address",
          "name": "_owner",
          "type": "address"
        },
        {
          "indexed": true,
          "internalType": "address",
          "name": "_spender",
          "type": "address"
        },
        {
          "indexed": false,
          "internalType": "uint256",
          "name": "_value",
          "type": "uint256"
        }
      ],
      "name": "Approval",
      "type": "event"
    },
    {
      "anonymous": false,
      "inputs": [
        {
          "indexed": true,
          "internalType": "address",
          "name": "_from",
          "type": "address"
        },
        {
          "indexed": false,
          "internalType": "uint256",
          "name": "_value",
          "type": "uint256"
        }
      ],
      "name": "Pendings",
      "type": "event"
    },
    {
      "anonymous": false,
      "inputs": [
        {
          "indexed": true,
          "internalType": "address",
          "name": "_from",
          "type": "address"
        },
        {
          "indexed": true,
          "internalType": "address",
          "name": "_to",
          "type": "address"
        },
        {
          "indexed": false,
          "internalType": "uint256",
          "name": "_value",
          "type": "uint256"
        }
      ],
      "name": "Transfer",
      "type": "event"
    },
    {
      "inputs": [],
      "name": "Curator",
      "outputs": [
        {
          "internalType": "address",
          "name": "",
          "type": "address"
        }
      ],
      "stateMutability": "view",
      "type": "function"
    },
    {
      "inputs": [
        {
          "internalType": "address",
          "name": "",
          "type": "address"
        },
        {
          "internalType": "address",
          "name": "",
          "type": "address"
        }
      ],
      "name": "allowed",
      "outputs": [
        {
          "internalType": "uint256",
          "name": "",
          "type": "uint256"
        }
      ],
      "stateMutability": "view",
      "type": "function"
    },
    {
      "inputs": [
        {
          "internalType": "address",
          "name": "",
          "type": "address"
        }
      ],
      "name": "balances",
      "outputs": [
        {
          "internalType": "uint256",
          "name": "",
          "type": "uint256"
        }
      ],
      "stateMutability": "view",
      "type": "function"
    },
    {
      "inputs": [],
      "name": "circulatingSupply_",
      "outputs": [
        {
          "internalType": "uint256",
          "name": "",
          "type": "uint256"
        }
      ],
      "stateMutability": "view",
      "type": "function"
    },
    {
      "inputs": [],
      "name": "decimals",
      "outputs": [
        {
          "internalType": "uint8",
          "name": "",
          "type": "uint8"
        }
      ],
      "stateMutability": "view",
      "type": "function"
    },
    {
      "inputs": [],
      "name": "initDepositesTotal",
      "outputs": [
        {
          "internalType": "uint256",
          "name": "",
          "type": "uint256"
        }
      ],
      "stateMutability": "view",
      "type": "function"
    },
    {
      "inputs": [],
      "name": "name",
      "outputs": [
        {
          "internalType": "string",
          "name": "",
          "type": "string"
        }
      ],
      "stateMutability": "view",
      "type": "function"
    },
    {
      "inputs": [
        {
          "internalType": "uint256",
          "name": "",
          "type": "uint256"
        }
      ],
      "name": "receipts",
      "outputs": [
        {
          "internalType": "uint256",
          "name": "blockNumber",
          "type": "uint256"
        },
        {
          "internalType": "address",
          "name": "from_",
          "type": "address"
        },
        {
          "internalType": "address",
          "name": "to_",
          "type": "address"
        },
        {
          "internalType": "address",
          "name": "receiver",
          "type": "address"
        },
        {
          "internalType": "uint256",
          "name": "paymentTime",
          "type": "uint256"
        },
        {
          "internalType": "uint256",
          "name": "value",
          "type": "uint256"
        },
        {
          "internalType": "uint256",
          "name": "transactionHash",
          "type": "uint256"
        }
      ],
      "stateMutability": "view",
      "type": "function"
    },
    {
      "inputs": [],
      "name": "symbol",
      "outputs": [
        {
          "internalType": "string",
          "name": "",
          "type": "string"
        }
      ],
      "stateMutability": "view",
      "type": "function"
    },
    {
      "inputs": [],
      "name": "totalSupply_",
      "outputs": [
        {
          "internalType": "uint256",
          "name": "",
          "type": "uint256"
        }
      ],
      "stateMutability": "view",
      "type": "function"
    },
    {
      "inputs": [],
      "name": "totalSupply",
      "outputs": [
        {
          "internalType": "uint256",
          "name": "",
          "type": "uint256"
        }
      ],
      "stateMutability": "view",
      "type": "function"
    },
    {
      "inputs": [
        {
          "internalType": "uint256",
          "name": "idKey",
          "type": "uint256"
        }
      ],
      "name": "getReceipt",
      "outputs": [
        {
          "components": [
            {
              "internalType": "uint256",
              "name": "blockNumber",
              "type": "uint256"
            },
            {
              "internalType": "address",
              "name": "from_",
              "type": "address"
            },
            {
              "internalType": "address",
              "name": "to_",
              "type": "address"
            },
            {
              "internalType": "address",
              "name": "receiver",
              "type": "address"
            },
            {
              "internalType": "uint256",
              "name": "paymentTime",
              "type": "uint256"
            },
            {
              "internalType": "uint256",
              "name": "value",
              "type": "uint256"
            },
            {
              "internalType": "uint256",
              "name": "transactionHash",
              "type": "uint256"
            }
          ],
          "internalType": "struct HashuranceToken.receiptTemplate",
          "name": "",
          "type": "tuple"
        }
      ],
      "stateMutability": "view",
      "type": "function"
    },
    {
      "inputs": [],
      "name": "circulatingSupply",
      "outputs": [
        {
          "internalType": "uint256",
          "name": "",
          "type": "uint256"
        }
      ],
      "stateMutability": "view",
      "type": "function"
    },
    {
      "inputs": [
        {
          "internalType": "address",
          "name": "_owner",
          "type": "address"
        }
      ],
      "name": "balanceOf",
      "outputs": [
        {
          "internalType": "uint256",
          "name": "",
          "type": "uint256"
        }
      ],
      "stateMutability": "view",
      "type": "function"
    },
    {
      "inputs": [
        {
          "internalType": "address",
          "name": "_owner",
          "type": "address"
        },
        {
          "internalType": "address",
          "name": "_spender",
          "type": "address"
        }
      ],
      "name": "allowance",
      "outputs": [
        {
          "internalType": "uint256",
          "name": "remaining",
          "type": "uint256"
        }
      ],
      "stateMutability": "view",
      "type": "function"
    },
    {
      "inputs": [
        {
          "internalType": "address",
          "name": "_spender",
          "type": "address"
        },
        {
          "internalType": "uint256",
          "name": "_value",
          "type": "uint256"
        }
      ],
      "name": "approve",
      "outputs": [
        {
          "internalType": "bool",
          "name": "success",
          "type": "bool"
        }
      ],
      "stateMutability": "nonpayable",
      "type": "function"
    },
    {
      "inputs": [
        {
          "internalType": "address",
          "name": "_to",
          "type": "address"
        },
        {
          "internalType": "uint256",
          "name": "_value",
          "type": "uint256"
        }
      ],
      "name": "transfer",
      "outputs": [
        {
          "internalType": "bool",
          "name": "",
          "type": "bool"
        }
      ],
      "stateMutability": "nonpayable",
      "type": "function"
    },
    {
      "inputs": [
        {
          "internalType": "address",
          "name": "_from",
          "type": "address"
        },
        {
          "internalType": "address",
          "name": "_to",
          "type": "address"
        },
        {
          "internalType": "uint256",
          "name": "_value",
          "type": "uint256"
        }
      ],
      "name": "transferFrom",
      "outputs": [
        {
          "internalType": "bool",
          "name": "",
          "type": "bool"
        }
      ],
      "stateMutability": "nonpayable",
      "type": "function"
    },
    {
      "inputs": [
        {
          "internalType": "uint256",
          "name": "applicationID",
          "type": "uint256"
        },
        {
          "components": [
            {
              "internalType": "uint256",
              "name": "blockNumber",
              "type": "uint256"
            },
            {
              "internalType": "address",
              "name": "from_",
              "type": "address"
            },
            {
              "internalType": "address",
              "name": "to_",
              "type": "address"
            },
            {
              "internalType": "address",
              "name": "receiver",
              "type": "address"
            },
            {
              "internalType": "uint256",
              "name": "paymentTime",
              "type": "uint256"
            },
            {
              "internalType": "uint256",
              "name": "value",
              "type": "uint256"
            },
            {
              "internalType": "uint256",
              "name": "transactionHash",
              "type": "uint256"
            }
          ],
          "internalType": "struct HashuranceToken.receiptTemplate",
          "name": "_receipt",
          "type": "tuple"
        }
      ],
      "name": "updateDepoPool",
      "outputs": [],
      "stateMutability": "nonpayable",
      "type": "function"
    },
    {
      "inputs": [
        {
          "internalType": "uint256",
          "name": "appliId",
          "type": "uint256"
        },
        {
          "internalType": "address",
          "name": "to_",
          "type": "address"
        },
        {
          "internalType": "uint256",
          "name": "_value",
          "type": "uint256"
        }
      ],
      "name": "purgeDepoPool",
      "outputs": [],
      "stateMutability": "nonpayable",
      "type": "function"
    },
    {
      "inputs": [],
      "name": "getTokenName",
      "outputs": [
        {
          "internalType": "string",
          "name": "",
          "type": "string"
        }
      ],
      "stateMutability": "view",
      "type": "function"
    }
  ],
  "bytecode": "0x60806040526040518060400160405280601081526020017f486173687572616e636520546f6b656e0000000000000000000000000000000081525060019080519060200190620000519291906200019b565b506040518060400160405280600481526020017f4853485400000000000000000000000000000000000000000000000000000000815250600290805190602001906200009f9291906200019b565b506a01bcb13a657b26388000006003556012600560006101000a81548160ff021916908360ff160217905550348015620000d857600080fd5b5060405162001f0738038062001f078339818101604052810190620000fe919062000262565b806000806101000a81548173ffffffffffffffffffffffffffffffffffffffff021916908373ffffffffffffffffffffffffffffffffffffffff160217905550600354600760008373ffffffffffffffffffffffffffffffffffffffff1673ffffffffffffffffffffffffffffffffffffffff16815260200190815260200160002081905550600060048190555060006006819055505062000341565b828054620001a990620002c2565b90600052602060002090601f016020900481019282620001cd576000855562000219565b82601f10620001e857805160ff191683800117855562000219565b8280016001018555821562000219579182015b8281111562000218578251825591602001919060010190620001fb565b5b5090506200022891906200022c565b5090565b5b80821115620002475760008160009055506001016200022d565b5090565b6000815190506200025c8162000327565b92915050565b6000602082840312156200027557600080fd5b600062000285848285016200024b565b91505092915050565b60006200029b82620002a2565b9050919050565b600073ffffffffffffffffffffffffffffffffffffffff82169050919050565b60006002820490506001821680620002db57607f821691505b60208210811415620002f257620002f1620002f8565b5b50919050565b7f4e487b7100000000000000000000000000000000000000000000000000000000600052602260045260246000fd5b62000332816200028e565b81146200033e57600080fd5b50565b611bb680620003516000396000f3fe608060405234801561001057600080fd5b50600436106101375760003560e01c80635c658165116100b85780639358928b1161007c5780639358928b1461036e57806395d89b411461038c578063a9059cbb146103aa578063b63e6ac3146103da578063dd62ed3e1461040a578063ebbee1ec1461043a57610137565b80635c658165146102b657806363bedff6146102e65780636c79e4b61461030457806370a0823114610320578063862b092b1461035057610137565b806323b872dd116100ff57806323b872dd146101fc57806327e235e31461022c578063313ce5671461025c578063324536eb1461027a5780635275dadc1461029857610137565b806302d3bd161461013c57806306fdde031461015a578063095ea7b3146101785780630f7ee1ec146101a857806318160ddd146101de575b600080fd5b610144610456565b604051610151919061187e565b60405180910390f35b61016261045c565b60405161016f9190611841565b60405180910390f35b610192600480360381019061018d91906115f9565b6104ea565b60405161019f9190611826565b60405180910390f35b6101c260048036038101906101bd9190611635565b6105dc565b6040516101d59796959493929190611899565b60405180910390f35b6101e661067e565b6040516101f3919061187e565b60405180910390f35b610216600480360381019061021191906115aa565b610688565b6040516102239190611826565b60405180910390f35b61024660048036038101906102419190611545565b6109ef565b604051610253919061187e565b60405180910390f35b610264610a07565b6040516102719190611908565b60405180910390f35b610282610a1a565b60405161028f919061187e565b60405180910390f35b6102a0610a20565b6040516102ad919061180b565b60405180910390f35b6102d060048036038101906102cb919061156e565b610a44565b6040516102dd919061187e565b60405180910390f35b6102ee610a69565b6040516102fb919061187e565b60405180910390f35b61031e600480360381019061031991906116ad565b610a6f565b005b61033a60048036038101906103359190611545565b610d6d565b604051610347919061187e565b60405180910390f35b610358610db6565b6040516103659190611841565b60405180910390f35b610376610e48565b604051610383919061187e565b60405180910390f35b610394610e52565b6040516103a19190611841565b60405180910390f35b6103c460048036038101906103bf91906115f9565b610ee0565b6040516103d19190611826565b60405180910390f35b6103f460048036038101906103ef9190611635565b611163565b6040516104019190611863565b60405180910390f35b610424600480360381019061041f919061156e565b6112ba565b604051610431919061187e565b60405180910390f35b610454600480360381019061044f919061165e565b611341565b005b60045481565b6001805461046990611a82565b80601f016020809104026020016040519081016040528092919081815260200182805461049590611a82565b80156104e25780601f106104b7576101008083540402835291602001916104e2565b820191906000526020600020905b8154815290600101906020018083116104c557829003601f168201915b505050505081565b600081600860003373ffffffffffffffffffffffffffffffffffffffff1673ffffffffffffffffffffffffffffffffffffffff16815260200190815260200160002060008573ffffffffffffffffffffffffffffffffffffffff1673ffffffffffffffffffffffffffffffffffffffff168152602001908152602001600020819055508273ffffffffffffffffffffffffffffffffffffffff163373ffffffffffffffffffffffffffffffffffffffff167f8c5be1e5ebec7d5bd14f71427d1e84f3dd0314c0f7b2291e5b200ac8c7c3b925846040516105ca919061187e565b60405180910390a36001905092915050565b60096020528060005260406000206000915090508060000154908060010160009054906101000a900473ffffffffffffffffffffffffffffffffffffffff16908060020160009054906101000a900473ffffffffffffffffffffffffffffffffffffffff16908060030160009054906101000a900473ffffffffffffffffffffffffffffffffffffffff16908060040154908060050154908060060154905087565b6000600354905090565b6000600760008573ffffffffffffffffffffffffffffffffffffffff1673ffffffffffffffffffffffffffffffffffffffff168152602001908152602001600020548211156106d657600080fd5b600860008573ffffffffffffffffffffffffffffffffffffffff1673ffffffffffffffffffffffffffffffffffffffff16815260200190815260200160002060003373ffffffffffffffffffffffffffffffffffffffff1673ffffffffffffffffffffffffffffffffffffffff1681526020019081526020016000205482111561075f57600080fd5b81600760008673ffffffffffffffffffffffffffffffffffffffff1673ffffffffffffffffffffffffffffffffffffffff16815260200190815260200160002060008282546107ae91906119c6565b9250508190555081600760008573ffffffffffffffffffffffffffffffffffffffff1673ffffffffffffffffffffffffffffffffffffffff16815260200190815260200160002060008282546108049190611970565b9250508190555081600860008673ffffffffffffffffffffffffffffffffffffffff1673ffffffffffffffffffffffffffffffffffffffff16815260200190815260200160002060003373ffffffffffffffffffffffffffffffffffffffff1673ffffffffffffffffffffffffffffffffffffffff168152602001908152602001600020600082825461089791906119c6565b9250508190555060008054906101000a900473ffffffffffffffffffffffffffffffffffffffff1673ffffffffffffffffffffffffffffffffffffffff168473ffffffffffffffffffffffffffffffffffffffff1614156109105781600460008282546109049190611970565b9250508190555061097f565b60008054906101000a900473ffffffffffffffffffffffffffffffffffffffff1673ffffffffffffffffffffffffffffffffffffffff168373ffffffffffffffffffffffffffffffffffffffff16141561097e57816004600082825461097691906119c6565b925050819055505b5b8273ffffffffffffffffffffffffffffffffffffffff168473ffffffffffffffffffffffffffffffffffffffff167fddf252ad1be2c89b69c2b068fc378daa952ba7f163c4a11628f55a4df523b3ef846040516109dc919061187e565b60405180910390a3600190509392505050565b60076020528060005260406000206000915090505481565b600560009054906101000a900460ff1681565b60035481565b60008054906101000a900473ffffffffffffffffffffffffffffffffffffffff1681565b6008602052816000526040600020602052806000526040600020600091509150505481565b60065481565b60008054906101000a900473ffffffffffffffffffffffffffffffffffffffff1673ffffffffffffffffffffffffffffffffffffffff163373ffffffffffffffffffffffffffffffffffffffff1614610ac757600080fd5b60008160a00151905080600760008060009054906101000a900473ffffffffffffffffffffffffffffffffffffffff1673ffffffffffffffffffffffffffffffffffffffff1673ffffffffffffffffffffffffffffffffffffffff168152602001908152602001600020541015610b3d57600080fd5b81600960008581526020019081526020016000206000820151816000015560208201518160010160006101000a81548173ffffffffffffffffffffffffffffffffffffffff021916908373ffffffffffffffffffffffffffffffffffffffff16021790555060408201518160020160006101000a81548173ffffffffffffffffffffffffffffffffffffffff021916908373ffffffffffffffffffffffffffffffffffffffff16021790555060608201518160030160006101000a81548173ffffffffffffffffffffffffffffffffffffffff021916908373ffffffffffffffffffffffffffffffffffffffff1602179055506080820151816004015560a0820151816005015560c082015181600601559050508060066000828254610c639190611970565b9250508190555080600760008060009054906101000a900473ffffffffffffffffffffffffffffffffffffffff1673ffffffffffffffffffffffffffffffffffffffff1673ffffffffffffffffffffffffffffffffffffffff1681526020019081526020016000206000828254610cda91906119c6565b925050819055508060046000828254610cf39190611970565b9250508190555060008054906101000a900473ffffffffffffffffffffffffffffffffffffffff1673ffffffffffffffffffffffffffffffffffffffff167f6102287f605478258a2642398d5267cdbd022f0e4d3b21339d8c9a3f541a4f3182604051610d60919061187e565b60405180910390a2505050565b6000600760008373ffffffffffffffffffffffffffffffffffffffff1673ffffffffffffffffffffffffffffffffffffffff168152602001908152602001600020549050919050565b606060018054610dc590611a82565b80601f0160208091040260200160405190810160405280929190818152602001828054610df190611a82565b8015610e3e5780601f10610e1357610100808354040283529160200191610e3e565b820191906000526020600020905b815481529060010190602001808311610e2157829003601f168201915b5050505050905090565b6000600454905090565b60028054610e5f90611a82565b80601f0160208091040260200160405190810160405280929190818152602001828054610e8b90611a82565b8015610ed85780601f10610ead57610100808354040283529160200191610ed8565b820191906000526020600020905b815481529060010190602001808311610ebb57829003601f168201915b505050505081565b60008273ffffffffffffffffffffffffffffffffffffffff163373ffffffffffffffffffffffffffffffffffffffff161415610f1b57600080fd5b81600760003373ffffffffffffffffffffffffffffffffffffffff1673ffffffffffffffffffffffffffffffffffffffff168152602001908152602001600020541015610f6757600080fd5b81600760003373ffffffffffffffffffffffffffffffffffffffff1673ffffffffffffffffffffffffffffffffffffffff1681526020019081526020016000206000828254610fb691906119c6565b9250508190555081600760008573ffffffffffffffffffffffffffffffffffffffff1673ffffffffffffffffffffffffffffffffffffffff168152602001908152602001600020600082825461100c9190611970565b9250508190555060008054906101000a900473ffffffffffffffffffffffffffffffffffffffff1673ffffffffffffffffffffffffffffffffffffffff163373ffffffffffffffffffffffffffffffffffffffff1614156110855781600460008282546110799190611970565b925050819055506110f4565b60008054906101000a900473ffffffffffffffffffffffffffffffffffffffff1673ffffffffffffffffffffffffffffffffffffffff168373ffffffffffffffffffffffffffffffffffffffff1614156110f35781600460008282546110eb91906119c6565b925050819055505b5b8273ffffffffffffffffffffffffffffffffffffffff163373ffffffffffffffffffffffffffffffffffffffff167fddf252ad1be2c89b69c2b068fc378daa952ba7f163c4a11628f55a4df523b3ef84604051611151919061187e565b60405180910390a36001905092915050565b61116b6113ec565b600960008381526020019081526020016000206040518060e0016040529081600082015481526020016001820160009054906101000a900473ffffffffffffffffffffffffffffffffffffffff1673ffffffffffffffffffffffffffffffffffffffff1673ffffffffffffffffffffffffffffffffffffffff1681526020016002820160009054906101000a900473ffffffffffffffffffffffffffffffffffffffff1673ffffffffffffffffffffffffffffffffffffffff1673ffffffffffffffffffffffffffffffffffffffff1681526020016003820160009054906101000a900473ffffffffffffffffffffffffffffffffffffffff1673ffffffffffffffffffffffffffffffffffffffff1673ffffffffffffffffffffffffffffffffffffffff16815260200160048201548152602001600582015481526020016006820154815250509050919050565b6000600860008473ffffffffffffffffffffffffffffffffffffffff1673ffffffffffffffffffffffffffffffffffffffff16815260200190815260200160002060008373ffffffffffffffffffffffffffffffffffffffff1673ffffffffffffffffffffffffffffffffffffffff16815260200190815260200160002054905092915050565b806006541161134f57600080fd5b60006009600085815260200190815260200160002060010160009054906101000a900473ffffffffffffffffffffffffffffffffffffffff1690503373ffffffffffffffffffffffffffffffffffffffff168173ffffffffffffffffffffffffffffffffffffffff16146113c257600080fd5b81600660008282546113d491906119c6565b925050819055506113e58383610ee0565b5050505050565b6040518060e0016040528060008152602001600073ffffffffffffffffffffffffffffffffffffffff168152602001600073ffffffffffffffffffffffffffffffffffffffff168152602001600073ffffffffffffffffffffffffffffffffffffffff1681526020016000815260200160008152602001600081525090565b60008135905061147a81611b52565b92915050565b600060e0828403121561149257600080fd5b61149c60e0611923565b905060006114ac84828501611530565b60008301525060206114c08482850161146b565b60208301525060406114d48482850161146b565b60408301525060606114e88482850161146b565b60608301525060806114fc84828501611530565b60808301525060a061151084828501611530565b60a08301525060c061152484828501611530565b60c08301525092915050565b60008135905061153f81611b69565b92915050565b60006020828403121561155757600080fd5b60006115658482850161146b565b91505092915050565b6000806040838503121561158157600080fd5b600061158f8582860161146b565b92505060206115a08582860161146b565b9150509250929050565b6000806000606084860312156115bf57600080fd5b60006115cd8682870161146b565b93505060206115de8682870161146b565b92505060406115ef86828701611530565b9150509250925092565b6000806040838503121561160c57600080fd5b600061161a8582860161146b565b925050602061162b85828601611530565b9150509250929050565b60006020828403121561164757600080fd5b600061165584828501611530565b91505092915050565b60008060006060848603121561167357600080fd5b600061168186828701611530565b93505060206116928682870161146b565b92505060406116a386828701611530565b9150509250925092565b60008061010083850312156116c157600080fd5b60006116cf85828601611530565b92505060206116e085828601611480565b9150509250929050565b6116f3816119fa565b82525050565b611702816119fa565b82525050565b61171181611a0c565b82525050565b600061172282611954565b61172c818561195f565b935061173c818560208601611a4f565b61174581611b41565b840191505092915050565b60e08201600082015161176660008501826117de565b50602082015161177960208501826116ea565b50604082015161178c60408501826116ea565b50606082015161179f60608501826116ea565b5060808201516117b260808501826117de565b5060a08201516117c560a08501826117de565b5060c08201516117d860c08501826117de565b50505050565b6117e781611a38565b82525050565b6117f681611a38565b82525050565b61180581611a42565b82525050565b600060208201905061182060008301846116f9565b92915050565b600060208201905061183b6000830184611708565b92915050565b6000602082019050818103600083015261185b8184611717565b905092915050565b600060e0820190506118786000830184611750565b92915050565b600060208201905061189360008301846117ed565b92915050565b600060e0820190506118ae600083018a6117ed565b6118bb60208301896116f9565b6118c860408301886116f9565b6118d560608301876116f9565b6118e260808301866117ed565b6118ef60a08301856117ed565b6118fc60c08301846117ed565b98975050505050505050565b600060208201905061191d60008301846117fc565b92915050565b6000604051905081810181811067ffffffffffffffff8211171561194a57611949611b12565b5b8060405250919050565b600081519050919050565b600082825260208201905092915050565b600061197b82611a38565b915061198683611a38565b9250827fffffffffffffffffffffffffffffffffffffffffffffffffffffffffffffffff038211156119bb576119ba611ab4565b5b828201905092915050565b60006119d182611a38565b91506119dc83611a38565b9250828210156119ef576119ee611ab4565b5b828203905092915050565b6000611a0582611a18565b9050919050565b60008115159050919050565b600073ffffffffffffffffffffffffffffffffffffffff82169050919050565b6000819050919050565b600060ff82169050919050565b60005b83811015611a6d578082015181840152602081019050611a52565b83811115611a7c576000848401525b50505050565b60006002820490506001821680611a9a57607f821691505b60208210811415611aae57611aad611ae3565b5b50919050565b7f4e487b7100000000000000000000000000000000000000000000000000000000600052601160045260246000fd5b7f4e487b7100000000000000000000000000000000000000000000000000000000600052602260045260246000fd5b7f4e487b7100000000000000000000000000000000000000000000000000000000600052604160045260246000fd5b6000601f19601f8301169050919050565b611b5b816119fa565b8114611b6657600080fd5b50565b611b7281611a38565b8114611b7d57600080fd5b5056fea2646970667358221220a03415b4cf1708468e3f41af65895a31b46ebc6c951d82493db597c901728ae064736f6c63430008000033",
  "immutableReferences": {},
  "source": "pragma solidity ^0.8.0;\n\ncontract HashuranceToken{\n    address public Curator;\n    string  public name = \"Hashurance Token\";                      \n    string  public symbol = \"HSHT\";                             \n    uint256 public totalSupply_ = 2100000000000000000000000; //8 groups of 3zeros.\n    uint256 public circulatingSupply_;\n    uint8   public decimals = 18;\n    uint256 public initDepositesTotal; \n    mapping(address => uint256) public balances;\n    mapping(address => mapping(address => uint256)) public allowed;\n    //ApplicationID => receipt. Payment references to BUSD deposites;\n    mapping(uint => receiptTemplate)public receipts;  //Still not so secure.\n\n    struct receiptTemplate{\n        uint blockNumber;\n        address from_;\n        address to_;\n        address receiver;\n        uint paymentTime;\n        uint value;\n        uint transactionHash;\n    }\n\n    event Transfer(\n        address indexed _from,\n        address indexed _to,\n        uint256 _value\n    );\n\n    event Approval(\n        address indexed _owner,\n        address indexed _spender,\n        uint256 _value\n    );\n\n    event Pendings(\n        address indexed _from,\n        uint256 _value\n    );\n\n    //Hashurance engine will create hashsurance token and become owner (curator).\n    //Insurance engine token will be minted by this contract tranferring to users addresses\n    //and burnt by doing the reverse.\n    constructor(address owner) public{\n        Curator = owner;\n        balances[owner] = totalSupply_;\n        circulatingSupply_ = 0;\n        initDepositesTotal = 0;\n    }\n\n    modifier onlyCurator{\n        require(msg.sender == Curator);\n        _;\n    }\n\n    // Return total amount of tokens\n    function totalSupply() public view returns(uint256){\n        return totalSupply_;\n    }\n\n    function getReceipt(uint idKey)public view returns(receiptTemplate memory){\n        return receipts[idKey];\n    }\n\n    // Return total amount of tokens in Circulation.\n    function circulatingSupply() public view returns (uint256) {\n        return circulatingSupply_;\n    }\n\n    function balanceOf(address _owner) public view returns(uint256){\n        return balances[_owner];\n    }\n\n    function allowance(address _owner, address _spender) public view returns (uint256 remaining) {\n        return allowed[_owner][_spender];\n    }\n\n    function approve(address _spender, uint256 _value) public returns(bool success){\n        allowed[msg.sender][_spender] = _value;\n        emit Approval(msg.sender, _spender, _value);\n        return true;\n    }\n\n    function transfer(address _to, uint256 _value) public returns(bool){\n        require(msg.sender != _to); //Avoids sending to yourself and wasting gas. Promote to modifier.\n        require(balances[msg.sender] >= _value);\n        balances[msg.sender] -= _value;\n        balances[_to] += _value;\n        if(msg.sender == Curator){ //Curator is sending tokens out.\n            //Increase the number of tokens in circulation, by _value.\n            circulatingSupply_ += _value;\n        }else if(_to == Curator){ //If someone sends to curator.\n            circulatingSupply_ -= _value;\n        }\n        emit Transfer(msg.sender, _to, _value);\n        return true;\n    }\n\n    function transferFrom(address _from, address _to, uint256 _value) public returns (bool) {\n        //require(_from != _to); //Avoids sending to yourself and wasting gas. Promote to modifier.\n        require(_value <= balances[_from]);\n        require(_value <= allowed[_from][msg.sender]);\n        balances[_from] -= _value;\n        balances[_to] += _value;\n        allowed[_from][msg.sender] -= _value;\n        if(_from == Curator){ //Curator is sending tokens out.\n            //Increase the number of tokens in circulation, by _value.\n            circulatingSupply_ += _value;\n        }else if(_to == Curator){ //If someone sends to curator.\n            circulatingSupply_ -= _value;\n        }\n        emit Transfer(_from, _to, _value);\n        return true;\n    }\n\n    //Used to store the total equivalent amount of application deposites prior approval.\n    //Later tranfer to policy contract address after approval and creation.\n    function updateDepoPool(uint applicationID, receiptTemplate memory _receipt) public onlyCurator{  //Only the Hushurance engine can create tellers.\n        uint _value = _receipt.value;\n        require(balances[Curator] >= _value);\n        receipts[applicationID] = _receipt; //Store the BUSD payment receipt.\n        \n        //Compute the Hashurance equivalent of BUSD (value) sent.\n        //Assuming 1HSHT = 1BUSD. NOTE this will not always be the case.\n        initDepositesTotal += _value; //Adds to the pool of depositors funds.\n        balances[Curator] -= _value;  //Deducts from curators funds.\n        circulatingSupply_ += _value; //Suspect this if bugs arise.\n        emit Pendings(Curator, _value);\n    }\n\n    function purgeDepoPool(uint appliId, address to_, uint _value)public{\n        require(initDepositesTotal > _value);\n         //Can only use this function if you are the user that deposited BUSD.\n        address who = receipts[appliId].from_;\n        require(who == msg.sender);\n        initDepositesTotal -= _value;\n        transfer(to_, _value);\n    }\n\n    // to get token name\nfunction getTokenName() public view returns(string memory) {\n      return name;\n  }\n}\n",
  "sourcePath": "/Users/temitopealabi/Documents/personal/blockchain_training/videos/web3/CryptoInsurance15_demo/contracts/Hashurance_T.sol",
  "compiler": {
    "name": "solc",
    "version": "0.8.0+commit.c7dfd78e.Emscripten.clang"
  },
  "schemaVersion": "3.3.4",
  "updatedAt": "2021-04-15T14:18:13.163Z",
  "devdoc": {
    "kind": "dev",
    "methods": {},
    "version": 1
  },
  "userdoc": {
    "kind": "user",
    "methods": {},
    "version": 1
  }
}