{
    "contractName": "HelloWorld",
    "abi": [
        {
            "inputs": [],
            "stateMutability": "nonpayable",
            "type": "constructor"
        },
        {
            "anonymous": false,
            "inputs": [
                {
                    "indexed": true,
                    "internalType": "address",
                    "name": "_owner",
                    "type": "address"
                },
                {
                    "indexed": true,
                    "internalType": "address",
                    "name": "_spender",
                    "type": "address"
                },
                {
                    "indexed": false,
                    "internalType": "uint256",
                    "name": "_value",
                    "type": "uint256"
                }
            ],
            "name": "Approval",
            "type": "event"
        },
        {
            "anonymous": false,
            "inputs": [
                {
                    "indexed": true,
                    "internalType": "address",
                    "name": "_from",
                    "type": "address"
                },
                {
                    "indexed": true,
                    "internalType": "address",
                    "name": "_to",
                    "type": "address"
                },
                {
                    "indexed": false,
                    "internalType": "uint256",
                    "name": "_value",
                    "type": "uint256"
                }
            ],
            "name": "Transfer",
            "type": "event"
        },
        {
            "inputs": [
                {
                    "internalType": "address",
                    "name": "_owner",
                    "type": "address"
                },
                {
                    "internalType": "address",
                    "name": "_spender",
                    "type": "address"
                }
            ],
            "name": "allowance",
            "outputs": [
                {
                    "internalType": "uint256",
                    "name": "remaining",
                    "type": "uint256"
                }
            ],
            "stateMutability": "view",
            "type": "function"
        },
        {
            "inputs": [
                {
                    "internalType": "address",
                    "name": "",
                    "type": "address"
                },
                {
                    "internalType": "address",
                    "name": "",
                    "type": "address"
                }
            ],
            "name": "allowed",
            "outputs": [
                {
                    "internalType": "uint256",
                    "name": "",
                    "type": "uint256"
                }
            ],
            "stateMutability": "view",
            "type": "function"
        },
        {
            "inputs": [
                {
                    "internalType": "address",
                    "name": "_spender",
                    "type": "address"
                },
                {
                    "internalType": "uint256",
                    "name": "_value",
                    "type": "uint256"
                }
            ],
            "name": "approve",
            "outputs": [
                {
                    "internalType": "bool",
                    "name": "success",
                    "type": "bool"
                }
            ],
            "stateMutability": "nonpayable",
            "type": "function"
        },
        {
            "inputs": [
                {
                    "internalType": "address",
                    "name": "_owner",
                    "type": "address"
                }
            ],
            "name": "balanceOf",
            "outputs": [
                {
                    "internalType": "uint256",
                    "name": "",
                    "type": "uint256"
                }
            ],
            "stateMutability": "view",
            "type": "function"
        },
        {
            "inputs": [
                {
                    "internalType": "address",
                    "name": "",
                    "type": "address"
                }
            ],
            "name": "balances",
            "outputs": [
                {
                    "internalType": "uint256",
                    "name": "",
                    "type": "uint256"
                }
            ],
            "stateMutability": "view",
            "type": "function"
        },
        {
            "inputs": [],
            "name": "decimals",
            "outputs": [
                {
                    "internalType": "uint8",
                    "name": "",
                    "type": "uint8"
                }
            ],
            "stateMutability": "view",
            "type": "function"
        },
        {
            "inputs": [],
            "name": "name",
            "outputs": [
                {
                    "internalType": "string",
                    "name": "",
                    "type": "string"
                }
            ],
            "stateMutability": "view",
            "type": "function"
        },
        {
            "inputs": [],
            "name": "symbol",
            "outputs": [
                {
                    "internalType": "string",
                    "name": "",
                    "type": "string"
                }
            ],
            "stateMutability": "view",
            "type": "function"
        },
        {
            "inputs": [],
            "name": "totalSupply",
            "outputs": [
                {
                    "internalType": "uint256",
                    "name": "",
                    "type": "uint256"
                }
            ],
            "stateMutability": "view",
            "type": "function"
        },
        {
            "inputs": [],
            "name": "totalSupply_",
            "outputs": [
                {
                    "internalType": "uint256",
                    "name": "",
                    "type": "uint256"
                }
            ],
            "stateMutability": "view",
            "type": "function"
        },
        {
            "inputs": [
                {
                    "internalType": "address",
                    "name": "_to",
                    "type": "address"
                },
                {
                    "internalType": "uint256",
                    "name": "_value",
                    "type": "uint256"
                }
            ],
            "name": "transfer",
            "outputs": [
                {
                    "internalType": "bool",
                    "name": "success",
                    "type": "bool"
                }
            ],
            "stateMutability": "nonpayable",
            "type": "function"
        },
        {
            "inputs": [
                {
                    "internalType": "address",
                    "name": "_from",
                    "type": "address"
                },
                {
                    "internalType": "address",
                    "name": "_to",
                    "type": "address"
                },
                {
                    "internalType": "uint256",
                    "name": "_value",
                    "type": "uint256"
                }
            ],
            "name": "transferFrom",
            "outputs": [
                {
                    "internalType": "bool",
                    "name": "success",
                    "type": "bool"
                }
            ],
            "stateMutability": "nonpayable",
            "type": "function"
        }
    ],
    "bytecode": "0x60806040523480156200001157600080fd5b50604051620009b0380380620009b0833981810160405281019062000037919062000179565b80600090805190602001906200004f92919062000057565b5050620002ef565b82805462000065906200025b565b90600052602060002090601f016020900481019282620000895760008555620000d5565b82601f10620000a457805160ff1916838001178555620000d5565b82800160010185558215620000d5579182015b82811115620000d4578251825591602001919060010190620000b7565b5b509050620000e49190620000e8565b5090565b5b8082111562000103576000816000905550600101620000e9565b5090565b60006200011e6200011884620001f2565b620001be565b9050828152602081018484840111156200013757600080fd5b6200014484828562000225565b509392505050565b600082601f8301126200015e57600080fd5b81516200017084826020860162000107565b91505092915050565b6000602082840312156200018c57600080fd5b600082015167ffffffffffffffff811115620001a757600080fd5b620001b5848285016200014c565b91505092915050565b6000604051905081810181811067ffffffffffffffff82111715620001e857620001e7620002c0565b5b8060405250919050565b600067ffffffffffffffff82111562000210576200020f620002c0565b5b601f19601f8301169050602081019050919050565b60005b838110156200024557808201518184015260208101905062000228565b8381111562000255576000848401525b50505050565b600060028204905060018216806200027457607f821691505b602082108114156200028b576200028a62000291565b5b50919050565b7f4e487b7100000000000000000000000000000000000000000000000000000000600052602260045260246000fd5b7f4e487b7100000000000000000000000000000000000000000000000000000000600052604160045260246000fd5b6106b180620002ff6000396000f3fe608060405234801561001057600080fd5b50600436106100575760003560e01c80633d7403a31461005c57806368446ead14610078578063b04de2d414610094578063bef55ef3146100c4578063e21f37ce146100e2575b600080fd5b6100766004803603810190610071919061038b565b610100565b005b610092600480360381019061008d919061038b565b61011a565b005b6100ae60048036038101906100a9919061038b565b610134565b6040516100bb91906104d9565b60405180910390f35b6100cc610160565b6040516100d991906104d9565b60405180910390f35b6100ea6101f2565b6040516100f791906104d9565b60405180910390f35b8060009080519060200190610116929190610280565b5050565b8060009080519060200190610130929190610280565b5050565b606081600060405160200161014a9291906104b5565b6040516020818303038152906040529050919050565b60606000805461016f906105da565b80601f016020809104026020016040519081016040528092919081815260200182805461019b906105da565b80156101e85780601f106101bd576101008083540402835291602001916101e8565b820191906000526020600020905b8154815290600101906020018083116101cb57829003601f168201915b5050505050905090565b600080546101ff906105da565b80601f016020809104026020016040519081016040528092919081815260200182805461022b906105da565b80156102785780601f1061024d57610100808354040283529160200191610278565b820191906000526020600020905b81548152906001019060200180831161025b57829003601f168201915b505050505081565b82805461028c906105da565b90600052602060002090601f0160209004810192826102ae57600085556102f5565b82601f106102c757805160ff19168380011785556102f5565b828001600101855582156102f5579182015b828111156102f45782518255916020019190600101906102d9565b5b5090506103029190610306565b5090565b5b8082111561031f576000816000905550600101610307565b5090565b60006103366103318461052c565b6104fb565b90508281526020810184848401111561034e57600080fd5b610359848285610598565b509392505050565b600082601f83011261037257600080fd5b8135610382848260208601610323565b91505092915050565b60006020828403121561039d57600080fd5b600082013567ffffffffffffffff8111156103b757600080fd5b6103c384828501610361565b91505092915050565b60006103d782610571565b6103e1818561057c565b93506103f18185602086016105a7565b6103fa8161066a565b840191505092915050565b600061041082610571565b61041a818561058d565b935061042a8185602086016105a7565b80840191505092915050565b60008154610443816105da565b61044d818661058d565b945060018216600081146104685760018114610479576104ac565b60ff198316865281860193506104ac565b6104828561055c565b60005b838110156104a457815481890152600182019150602081019050610485565b838801955050505b50505092915050565b60006104c18285610405565b91506104cd8284610436565b91508190509392505050565b600060208201905081810360008301526104f381846103cc565b905092915050565b6000604051905081810181811067ffffffffffffffff821117156105225761052161063b565b5b8060405250919050565b600067ffffffffffffffff8211156105475761054661063b565b5b601f19601f8301169050602081019050919050565b60008190508160005260206000209050919050565b600081519050919050565b600082825260208201905092915050565b600081905092915050565b82818337600083830152505050565b60005b838110156105c55780820151818401526020810190506105aa565b838111156105d4576000848401525b50505050565b600060028204905060018216806105f257607f821691505b602082108114156106065761060561060c565b5b50919050565b7f4e487b7100000000000000000000000000000000000000000000000000000000600052602260045260246000fd5b7f4e487b7100000000000000000000000000000000000000000000000000000000600052604160045260246000fd5b6000601f19601f830116905091905056fea26469706673582212205224a4fc4a447a969366ee697376b82689c4f262a8a00b32b2f24558c1a1625364736f6c63430008000033",
    "immutableReferences": {},
    "source": "// Specifies the version of Solidity, using semantic versioning.\n// Learn more: https://solidity.readthedocs.io/en/v0.5.10/layout-of-source-files.html#pragma\npragma solidity ^0.8.0;\n// Defines a contract named `HelloWorld`.\n// A contract is a collection of functions and data (its state).\n// Once deployed, a contract resides at a specific address on the Ethereum blockchain.\n// Learn more: https://solidity.readthedocs.io/en/v0.5.10/structure-of-a-contract.html\ncontract HelloWorld {\n    // Declares a state variable `message` of type `string`.\n    // State variables are variables whose values are permanently stored in contract storage.\n    // The keyword `public` makes variables accessible from outside a contract\n    // and creates a function that other contracts or clients can call to access the value.\n    string public message;\n    // Similar to many class-based object-oriented languages, a constructor is\n    // a special function that is only executed upon contract creation.\n    // Constructors are used to initialize the contract's data.\n    // Learn more: https://solidity.readthedocs.io/en/v0.5.10/contracts.html#constructors\n    constructor(string memory initMessage) public {\n        // Accepts a string argument `initMessage` and sets the value\n        // into the contract's `message` storage variable).\n        message = initMessage;\n    }\n    // A public function that accepts a string argument\n    // and updates the `message` storage variable.\n    function update(string memory newMessage) public {\n        message = newMessage;\n    }\n\n    // A view function that accepts a string argument\n    // and return a concat string with input `inMessage` memory variable and `message` storage variable.\n    function concatMessage(string memory inMessage) public view returns (string memory) {\n        return string(abi.encodePacked(inMessage, message));\n    }\n\n\n\nfunction readData() external view returns(string memory) {\n    return message;\n  }\n\n\n  function updateData(string memory newMessage) external {\n    message = newMessage;\n  }\n    \n}",
    "sourcePath": "/Users/temitopealabi/Documents/personal/blockchain_training/videos/web3/bsc-hello/contracts/HelloWorld.sol",
    "compiler": {
        "name": "solc",
        "version": "0.8.0+commit.c7dfd78e.Emscripten.clang"
    },
    "schemaVersion": "3.3.4",
    "updatedAt": "2021-04-08T16:34:00.489Z",
    "networkType": "ethereum",
    "devdoc": {
        "kind": "dev",
        "methods": {},
        "version": 1
    },
    "userdoc": {
        "kind": "user",
        "methods": {},
        "version": 1
    }
}