{
  "contractName": "Policy",
  "abi": [
    {
      "inputs": [
        {
          "internalType": "address",
          "name": "holder",
          "type": "address"
        },
        {
          "internalType": "uint256",
          "name": "applyId",
          "type": "uint256"
        },
        {
          "internalType": "string",
          "name": "insured",
          "type": "string"
        },
        {
          "internalType": "uint256",
          "name": "principal",
          "type": "uint256"
        },
        {
          "internalType": "uint256",
          "name": "initialPayment",
          "type": "uint256"
        },
        {
          "internalType": "uint256",
          "name": "paymentTime",
          "type": "uint256"
        },
        {
          "internalType": "address",
          "name": "HSHTaddress",
          "type": "address"
        }
      ],
      "stateMutability": "nonpayable",
      "type": "constructor"
    },
    {
      "inputs": [],
      "name": "ApprovedapplyId",
      "outputs": [
        {
          "internalType": "uint256",
          "name": "",
          "type": "uint256"
        }
      ],
      "stateMutability": "view",
      "type": "function"
    },
    {
      "inputs": [],
      "name": "CreationTime",
      "outputs": [
        {
          "internalType": "uint256",
          "name": "",
          "type": "uint256"
        }
      ],
      "stateMutability": "view",
      "type": "function"
    },
    {
      "inputs": [],
      "name": "HSHTAddress",
      "outputs": [
        {
          "internalType": "address",
          "name": "",
          "type": "address"
        }
      ],
      "stateMutability": "view",
      "type": "function"
    },
    {
      "inputs": [],
      "name": "InsuredItem",
      "outputs": [
        {
          "internalType": "string",
          "name": "",
          "type": "string"
        }
      ],
      "stateMutability": "view",
      "type": "function"
    },
    {
      "inputs": [],
      "name": "Principal",
      "outputs": [
        {
          "internalType": "uint256",
          "name": "",
          "type": "uint256"
        }
      ],
      "stateMutability": "view",
      "type": "function"
    },
    {
      "inputs": [],
      "name": "Rprofit",
      "outputs": [
        {
          "internalType": "uint256",
          "name": "",
          "type": "uint256"
        }
      ],
      "stateMutability": "view",
      "type": "function"
    },
    {
      "inputs": [
        {
          "internalType": "uint256",
          "name": "",
          "type": "uint256"
        }
      ],
      "name": "claimRequestCount",
      "outputs": [
        {
          "internalType": "uint256",
          "name": "",
          "type": "uint256"
        }
      ],
      "stateMutability": "view",
      "type": "function"
    },
    {
      "inputs": [],
      "name": "finalDecision",
      "outputs": [
        {
          "internalType": "uint256",
          "name": "",
          "type": "uint256"
        }
      ],
      "stateMutability": "view",
      "type": "function"
    },
    {
      "inputs": [],
      "name": "nextPremium",
      "outputs": [
        {
          "internalType": "uint256",
          "name": "",
          "type": "uint256"
        }
      ],
      "stateMutability": "view",
      "type": "function"
    },
    {
      "inputs": [],
      "name": "policy_Holder",
      "outputs": [
        {
          "internalType": "address",
          "name": "",
          "type": "address"
        }
      ],
      "stateMutability": "view",
      "type": "function"
    },
    {
      "inputs": [],
      "name": "predictedTenure",
      "outputs": [
        {
          "internalType": "uint256",
          "name": "",
          "type": "uint256"
        }
      ],
      "stateMutability": "view",
      "type": "function"
    },
    {
      "inputs": [],
      "name": "premiumDeadline",
      "outputs": [
        {
          "internalType": "uint256",
          "name": "",
          "type": "uint256"
        }
      ],
      "stateMutability": "view",
      "type": "function"
    },
    {
      "inputs": [
        {
          "internalType": "uint256",
          "name": "",
          "type": "uint256"
        }
      ],
      "name": "premiumHistory",
      "outputs": [
        {
          "internalType": "uint256",
          "name": "",
          "type": "uint256"
        }
      ],
      "stateMutability": "view",
      "type": "function"
    },
    {
      "inputs": [],
      "name": "reasonForDenial",
      "outputs": [
        {
          "internalType": "string",
          "name": "",
          "type": "string"
        }
      ],
      "stateMutability": "view",
      "type": "function"
    },
    {
      "inputs": [],
      "name": "toApproveCount",
      "outputs": [
        {
          "internalType": "uint256",
          "name": "",
          "type": "uint256"
        }
      ],
      "stateMutability": "view",
      "type": "function"
    },
    {
      "inputs": [],
      "name": "toDenyCount",
      "outputs": [
        {
          "internalType": "uint256",
          "name": "",
          "type": "uint256"
        }
      ],
      "stateMutability": "view",
      "type": "function"
    },
    {
      "inputs": [
        {
          "internalType": "uint256",
          "name": "",
          "type": "uint256"
        }
      ],
      "name": "totalPremiumPaid",
      "outputs": [
        {
          "internalType": "uint256",
          "name": "",
          "type": "uint256"
        }
      ],
      "stateMutability": "view",
      "type": "function"
    },
    {
      "inputs": [],
      "name": "claim",
      "outputs": [
        {
          "internalType": "bool",
          "name": "",
          "type": "bool"
        }
      ],
      "stateMutability": "nonpayable",
      "type": "function"
    },
    {
      "inputs": [
        {
          "internalType": "uint256",
          "name": "payTime",
          "type": "uint256"
        },
        {
          "internalType": "uint256",
          "name": "payAmount",
          "type": "uint256"
        }
      ],
      "name": "logPremiumHistory",
      "outputs": [],
      "stateMutability": "nonpayable",
      "type": "function"
    },
    {
      "inputs": [],
      "name": "getNextPaymentTime",
      "outputs": [
        {
          "internalType": "uint256",
          "name": "",
          "type": "uint256"
        }
      ],
      "stateMutability": "view",
      "type": "function"
    },
    {
      "inputs": [],
      "name": "getNextPaymentAmount",
      "outputs": [
        {
          "internalType": "uint256",
          "name": "",
          "type": "uint256"
        }
      ],
      "stateMutability": "view",
      "type": "function"
    },
    {
      "inputs": [],
      "name": "validityStatus",
      "outputs": [
        {
          "internalType": "string",
          "name": "validity",
          "type": "string"
        }
      ],
      "stateMutability": "view",
      "type": "function"
    },
    {
      "inputs": [],
      "name": "computeVariables",
      "outputs": [],
      "stateMutability": "nonpayable",
      "type": "function"
    },
    {
      "inputs": [
        {
          "internalType": "uint256",
          "name": "toApproveCount",
          "type": "uint256"
        },
        {
          "internalType": "uint256",
          "name": "toDenyCount",
          "type": "uint256"
        },
        {
          "internalType": "uint256",
          "name": "finalDecision",
          "type": "uint256"
        }
      ],
      "name": "enterInspectionResult",
      "outputs": [],
      "stateMutability": "nonpayable",
      "type": "function"
    },
    {
      "inputs": [
        {
          "internalType": "address",
          "name": "HSHTAddress",
          "type": "address"
        }
      ],
      "name": "prepForWithdrawal",
      "outputs": [],
      "stateMutability": "nonpayable",
      "type": "function"
    },
    {
      "inputs": [],
      "name": "getPolicyHolder",
      "outputs": [
        {
          "internalType": "address",
          "name": "",
          "type": "address"
        }
      ],
      "stateMutability": "view",
      "type": "function"
    }
  ],
  "bytecode": "0x60806040523480156200001157600080fd5b50604051620015993803806200159983398181016040528101906200003791906200029e565b86600160006101000a81548173ffffffffffffffffffffffffffffffffffffffff021916908373ffffffffffffffffffffffffffffffffffffffff160217905550856000819055508460029080519060200190620000979291906200014e565b50426003819055508360048190555082600560008481526020019081526020016000208190555062278d00600354620000d19190620003cb565b600a81905550600683908060018154018082558091505060019003906000526020600020016000909190919091505580600760006101000a81548173ffffffffffffffffffffffffffffffffffffffff021916908373ffffffffffffffffffffffffffffffffffffffff1602179055505050505050505062000593565b8280546200015c906200049c565b90600052602060002090601f016020900481019282620001805760008555620001cc565b82601f106200019b57805160ff1916838001178555620001cc565b82800160010185558215620001cc579182015b82811115620001cb578251825591602001919060010190620001ae565b5b509050620001db9190620001df565b5090565b5b80821115620001fa576000816000905550600101620001e0565b5090565b6000620002156200020f8462000398565b62000364565b9050828152602081018484840111156200022e57600080fd5b6200023b84828562000466565b509392505050565b60008151905062000254816200055f565b92915050565b600082601f8301126200026c57600080fd5b81516200027e848260208601620001fe565b91505092915050565b600081519050620002988162000579565b92915050565b600080600080600080600060e0888a031215620002ba57600080fd5b6000620002ca8a828b0162000243565b9750506020620002dd8a828b0162000287565b965050604088015167ffffffffffffffff811115620002fb57600080fd5b620003098a828b016200025a565b95505060606200031c8a828b0162000287565b94505060806200032f8a828b0162000287565b93505060a0620003428a828b0162000287565b92505060c0620003558a828b0162000243565b91505092959891949750929550565b6000604051905081810181811067ffffffffffffffff821117156200038e576200038d62000530565b5b8060405250919050565b600067ffffffffffffffff821115620003b657620003b562000530565b5b601f19601f8301169050602081019050919050565b6000620003d8826200045c565b9150620003e5836200045c565b9250827fffffffffffffffffffffffffffffffffffffffffffffffffffffffffffffffff038211156200041d576200041c620004d2565b5b828201905092915050565b600062000435826200043c565b9050919050565b600073ffffffffffffffffffffffffffffffffffffffff82169050919050565b6000819050919050565b60005b838110156200048657808201518184015260208101905062000469565b8381111562000496576000848401525b50505050565b60006002820490506001821680620004b557607f821691505b60208210811415620004cc57620004cb62000501565b5b50919050565b7f4e487b7100000000000000000000000000000000000000000000000000000000600052601160045260246000fd5b7f4e487b7100000000000000000000000000000000000000000000000000000000600052602260045260246000fd5b7f4e487b7100000000000000000000000000000000000000000000000000000000600052604160045260246000fd5b6200056a8162000428565b81146200057657600080fd5b50565b62000584816200045c565b81146200059057600080fd5b50565b610ff680620005a36000396000f3fe608060405234801561001057600080fd5b506004361061018e5760003560e01c80638080d307116100de578063a3f82eb811610097578063d474b9ce11610071578063d474b9ce14610443578063d5f92b1b14610461578063de36e39c1461047f578063e5901ea11461049d5761018e565b8063a3f82eb8146103d7578063af125c8a146103f5578063aff06064146104135761018e565b80638080d30714610313578063889f59b2146103315780638efa77461461034d57806390c6b18a1461036b57806393873b481461038957806396fd1b5c146103a75761018e565b80635d5463131161014b578063680418461161012557806368041846146102b157806369d9c032146102cf5780636de84ae9146102d95780636f9c29c6146102f75761018e565b80635d5463131461024557806360a9903414610263578063658bb5e5146102935761018e565b8063168426561461019357806331b8214d146101b1578063343a2e75146101cf57806338271924146101eb5780634e71d92d1461020957806359cbd20714610227575b600080fd5b61019b6104bb565b6040516101a89190610cfd565b60405180910390f35b6101b96104e1565b6040516101c69190610d9e565b60405180910390f35b6101e960048036038101906101e49190610bcc565b6104e7565b005b6101f3610565565b6040516102009190610d5c565b60405180910390f35b610211610611565b60405161021e9190610d41565b60405180910390f35b61022f6106cf565b60405161023c9190610d9e565b60405180910390f35b61024d6106d5565b60405161025a9190610d9e565b60405180910390f35b61027d60048036038101906102789190610ba3565b6106db565b60405161028a9190610d9e565b60405180910390f35b61029b6106ff565b6040516102a89190610d9e565b60405180910390f35b6102b9610705565b6040516102c69190610d9e565b60405180910390f35b6102d761070b565b005b6102e1610744565b6040516102ee9190610cfd565b60405180910390f35b610311600480360381019061030c9190610c08565b61076a565b005b61031b6107d7565b6040516103289190610d9e565b60405180910390f35b61034b60048036038101906103469190610b51565b6107dd565b005b6103556108c1565b6040516103629190610d5c565b60405180910390f35b61037361094f565b6040516103809190610d9e565b60405180910390f35b610391610955565b60405161039e9190610d9e565b60405180910390f35b6103c160048036038101906103bc9190610ba3565b61095f565b6040516103ce9190610d9e565b60405180910390f35b6103df610983565b6040516103ec9190610cfd565b60405180910390f35b6103fd6109ad565b60405161040a9190610d9e565b60405180910390f35b61042d60048036038101906104289190610ba3565b6109b3565b60405161043a9190610d9e565b60405180910390f35b61044b6109cb565b6040516104589190610d9e565b60405180910390f35b6104696109d1565b6040516104769190610d9e565b60405180910390f35b6104876109d7565b6040516104949190610d9e565b60405180910390f35b6104a56109e1565b6040516104b29190610d5c565b60405180910390f35b600160009054906101000a900473ffffffffffffffffffffffffffffffffffffffff1681565b600e5481565b600160009054906101000a900473ffffffffffffffffffffffffffffffffffffffff1673ffffffffffffffffffffffffffffffffffffffff163373ffffffffffffffffffffffffffffffffffffffff161461054157600080fd5b80600560008481526020019081526020016000208190555061056161070b565b5050565b606062278d00600354426105799190610e2b565b11156105bc576040518060400160405280600781526020017f496e76616c696400000000000000000000000000000000000000000000000000815250905061060e565b62278d00600354426105ce9190610e2b565b101561060d576040518060400160405280600581526020017f56616c696400000000000000000000000000000000000000000000000000000081525090505b5b90565b6000600160009054906101000a900473ffffffffffffffffffffffffffffffffffffffff1673ffffffffffffffffffffffffffffffffffffffff163373ffffffffffffffffffffffffffffffffffffffff16146106a3576040517f08c379a000000000000000000000000000000000000000000000000000000000815260040161069a90610d7e565b60405180910390fd5b600c42908060018154018082558091505060019003906000526020600020016000909190919091505590565b60095481565b600a5481565b600c81815481106106eb57600080fd5b906000526020600020016000915090505481565b60005481565b600b5481565b600c6008819055506096600981905550600a544211156107425762278d00600a600082825461073a9190610dd5565b925050819055505b565b600760009054906101000a900473ffffffffffffffffffffffffffffffffffffffff1681565b6000600c805490501161077c57600080fd5b60048114156107d2576040518060400160405280600381526020017f4e2f410000000000000000000000000000000000000000000000000000000000815250601090805190602001906107d0929190610a6f565b505b505050565b600d5481565b6000600c80549050116107ef57600080fd5b60008190506004546006805490501161080b5760c86009819055505b8073ffffffffffffffffffffffffffffffffffffffff1663095ea7b3600160009054906101000a900473ffffffffffffffffffffffffffffffffffffffff166004546040518363ffffffff1660e01b815260040161086a929190610d18565b602060405180830381600087803b15801561088457600080fd5b505af1158015610898573d6000803e3d6000fd5b505050506040513d601f19601f820116820180604052508101906108bc9190610b7a565b505050565b600280546108ce90610eda565b80601f01602080910402602001604051908101604052809291908181526020018280546108fa90610eda565b80156109475780601f1061091c57610100808354040283529160200191610947565b820191906000526020600020905b81548152906001019060200180831161092a57829003601f168201915b505050505081565b60035481565b6000600a54905090565b6006818154811061096f57600080fd5b906000526020600020016000915090505481565b6000600160009054906101000a900473ffffffffffffffffffffffffffffffffffffffff16905090565b60045481565b60056020528060005260406000206000915090505481565b600f5481565b60085481565b6000600954905090565b601080546109ee90610eda565b80601f0160208091040260200160405190810160405280929190818152602001828054610a1a90610eda565b8015610a675780601f10610a3c57610100808354040283529160200191610a67565b820191906000526020600020905b815481529060010190602001808311610a4a57829003601f168201915b505050505081565b828054610a7b90610eda565b90600052602060002090601f016020900481019282610a9d5760008555610ae4565b82601f10610ab657805160ff1916838001178555610ae4565b82800160010185558215610ae4579182015b82811115610ae3578251825591602001919060010190610ac8565b5b509050610af19190610af5565b5090565b5b80821115610b0e576000816000905550600101610af6565b5090565b600081359050610b2181610f7b565b92915050565b600081519050610b3681610f92565b92915050565b600081359050610b4b81610fa9565b92915050565b600060208284031215610b6357600080fd5b6000610b7184828501610b12565b91505092915050565b600060208284031215610b8c57600080fd5b6000610b9a84828501610b27565b91505092915050565b600060208284031215610bb557600080fd5b6000610bc384828501610b3c565b91505092915050565b60008060408385031215610bdf57600080fd5b6000610bed85828601610b3c565b9250506020610bfe85828601610b3c565b9150509250929050565b600080600060608486031215610c1d57600080fd5b6000610c2b86828701610b3c565b9350506020610c3c86828701610b3c565b9250506040610c4d86828701610b3c565b9150509250925092565b610c6081610e5f565b82525050565b610c6f81610e71565b82525050565b6000610c8082610db9565b610c8a8185610dc4565b9350610c9a818560208601610ea7565b610ca381610f6a565b840191505092915050565b6000610cbb600e83610dc4565b91507f43616e6e6f7420636c61696d21210000000000000000000000000000000000006000830152602082019050919050565b610cf781610e9d565b82525050565b6000602082019050610d126000830184610c57565b92915050565b6000604082019050610d2d6000830185610c57565b610d3a6020830184610cee565b9392505050565b6000602082019050610d566000830184610c66565b92915050565b60006020820190508181036000830152610d768184610c75565b905092915050565b60006020820190508181036000830152610d9781610cae565b9050919050565b6000602082019050610db36000830184610cee565b92915050565b600081519050919050565b600082825260208201905092915050565b6000610de082610e9d565b9150610deb83610e9d565b9250827fffffffffffffffffffffffffffffffffffffffffffffffffffffffffffffffff03821115610e2057610e1f610f0c565b5b828201905092915050565b6000610e3682610e9d565b9150610e4183610e9d565b925082821015610e5457610e53610f0c565b5b828203905092915050565b6000610e6a82610e7d565b9050919050565b60008115159050919050565b600073ffffffffffffffffffffffffffffffffffffffff82169050919050565b6000819050919050565b60005b83811015610ec5578082015181840152602081019050610eaa565b83811115610ed4576000848401525b50505050565b60006002820490506001821680610ef257607f821691505b60208210811415610f0657610f05610f3b565b5b50919050565b7f4e487b7100000000000000000000000000000000000000000000000000000000600052601160045260246000fd5b7f4e487b7100000000000000000000000000000000000000000000000000000000600052602260045260246000fd5b6000601f19601f8301169050919050565b610f8481610e5f565b8114610f8f57600080fd5b50565b610f9b81610e71565b8114610fa657600080fd5b50565b610fb281610e9d565b8114610fbd57600080fd5b5056fea26469706673582212208843a33931edab0c0526e144a2010bc967ee3b687feef8804e33e07dfc1f708164736f6c63430008000033",
  "immutableReferences": {},
  "source": "pragma solidity ^0.8.0;\nimport \"./Hashurance_T.sol\";        //Imports Hashurance token\n\ncontract Policy{\n  uint public ApprovedapplyId;\n  address public policy_Holder;\n  string public InsuredItem;\n  uint public CreationTime;\n  uint public Principal;        //The amount we will pay back after a claim\n   //Time of Payment => Amount paid\n  mapping(uint => uint) public premiumHistory; //History of premium payment.\n  uint[] public totalPremiumPaid;\n  address public HSHTAddress;\n\n  uint public predictedTenure;  //How long the policy will last in months before a claim.\n  uint public nextPremium;      //The amount of stablecoin the policy holder will pay next.\n  uint public premiumDeadline;\n  uint public Rprofit; //a constant\n\n  uint[] public claimRequestCount; //Used to signify and track claims by policy holders.\n  uint public toApproveCount;     //Number of validators who approved this application.\n  uint public toDenyCount;        //Number of validators who declined this application. \n  uint public finalDecision;      //0 = not decided, 2 = Declined, 4 = Approved.\n  string public reasonForDenial;  //Possible reasons for a rejection.\n\n  constructor(\n      address holder, \n      uint applyId, \n      string memory insured, \n      uint principal,\n      uint initialPayment,\n      uint paymentTime,\n      address HSHTaddress){\n    policy_Holder = holder;\n    ApprovedapplyId = applyId;\n    InsuredItem = insured;\n    CreationTime = block.timestamp;\n    Principal = principal;\n    premiumHistory[paymentTime] = initialPayment;\n    premiumDeadline = CreationTime + 2592000;//1 month from now\n    totalPremiumPaid.push(initialPayment);\n    //Rprofit = 0.3 * principal;\n    HSHTAddress = HSHTaddress;\n  }\n\n    function claim()public returns(bool){\n        require(msg.sender == policy_Holder, \"Cannot claim!!\");\n        claimRequestCount.push(block.timestamp);\n    }\n\n    function logPremiumHistory(uint payTime, uint payAmount)public{\n        require(msg.sender == policy_Holder); //Restricts access to this function.\n        premiumHistory[payTime] = payAmount;\n        computeVariables();\n    }\n    \n    function getNextPaymentTime()public view returns(uint){\n        return premiumDeadline;\n    }\n\n    function getNextPaymentAmount()public view returns(uint){\n        return nextPremium;\n    }\n    \n    function validityStatus() public view returns(string memory validity){\n      if(block.timestamp - CreationTime > 2592000){ //One month in UNIX timestamp\n          validity = \"Invalid\";\n        } else if(block.timestamp - CreationTime < 2592000){\n            validity = \"Valid\";\n        }\n    }\n\n    function computeVariables() public{\n      //require(premiumDeadline < block.timestamp); //Might change this.\n       //Estimate and predict the policy period or tenure.\n      predictedTenure = 12;\n       //Compute the next premium amount.\n      nextPremium = 150; //Principal / predictedTenure;\n       //Compute prmium deadline.\n       if(block.timestamp > premiumDeadline){\n           premiumDeadline += 2592000;//1 month from now.\n       }\n    }\n\n    function enterInspectionResult(uint toApproveCount, uint toDenyCount, uint finalDecision)public{\n        //Find another way to secure this function\n        require(claimRequestCount.length > 0);\n        if(finalDecision == 4){\n           //Clear reasons for denial, entered by validators, if the application was approved.\n          reasonForDenial = \"N/A\";\n        }\n    }\n\n    function prepForWithdrawal(address HSHTAddress)public{\n        require(claimRequestCount.length > 0);\n        HashuranceToken HSHTobject = HashuranceToken(HSHTAddress);\n        //Checks which case has occurred.\n        if(totalPremiumPaid.length <= Principal){\n            //Case 1: Total Pm < P.\n            //Case 2: Total Pm = P.\n            nextPremium = 200; //Ask for Rprofit(deductible) to be paid in BUSD.\n            //Pay policy holder all HSHT that's in the policy account.\n            //Minter should balance up.\n        }/*else if(totalPremiumPaid.length > Principal){\n            //Case 3: Total Pm > P.\n            //Dont ask for Rprofit.\n            //Pay policy holder principal amount of HSHT, from policy account.\n        }*/\n\n        //Call HSHT contract and approve Hashurance engine to transfer the principal amount.\n        HSHTobject.approve(policy_Holder, Principal);\n        //HSHTAddress.call(approve, policy_Holder, principal);\n    }\n    function getPolicyHolder()public view returns(address){\n        return policy_Holder;\n    }\n}",
  "sourcePath": "/Users/temitopealabi/Documents/personal/blockchain_training/videos/web3/CryptoInsurance15_demo/contracts/policy_contract.sol",
  "compiler": {
    "name": "solc",
    "version": "0.8.0+commit.c7dfd78e.Emscripten.clang"
  },
  "schemaVersion": "3.3.4",
  "updatedAt": "2021-04-15T14:18:13.195Z",
  "devdoc": {
    "kind": "dev",
    "methods": {},
    "version": 1
  },
  "userdoc": {
    "kind": "user",
    "methods": {},
    "version": 1
  }
}