{
  "contractName": "voteNvalidate",
  "abi": [
    {
      "inputs": [],
      "name": "numOfValidators",
      "outputs": [
        {
          "internalType": "uint256",
          "name": "",
          "type": "uint256"
        }
      ],
      "stateMutability": "view",
      "type": "function"
    },
    {
      "inputs": [
        {
          "internalType": "address",
          "name": "",
          "type": "address"
        },
        {
          "internalType": "uint256",
          "name": "",
          "type": "uint256"
        }
      ],
      "name": "validationRegister",
      "outputs": [
        {
          "internalType": "uint256",
          "name": "",
          "type": "uint256"
        }
      ],
      "stateMutability": "view",
      "type": "function"
    },
    {
      "inputs": [
        {
          "internalType": "address",
          "name": "",
          "type": "address"
        }
      ],
      "name": "validators",
      "outputs": [
        {
          "internalType": "uint256",
          "name": "",
          "type": "uint256"
        }
      ],
      "stateMutability": "view",
      "type": "function"
    },
    {
      "inputs": [
        {
          "internalType": "uint256",
          "name": "appId",
          "type": "uint256"
        },
        {
          "internalType": "uint256",
          "name": "decision",
          "type": "uint256"
        },
        {
          "internalType": "uint256",
          "name": "approveCount",
          "type": "uint256"
        },
        {
          "internalType": "uint256",
          "name": "denyCount",
          "type": "uint256"
        }
      ],
      "name": "inspect",
      "outputs": [
        {
          "internalType": "uint256[3]",
          "name": "",
          "type": "uint256[3]"
        }
      ],
      "stateMutability": "nonpayable",
      "type": "function"
    },
    {
      "inputs": [
        {
          "internalType": "address",
          "name": "policyAddress",
          "type": "address"
        },
        {
          "internalType": "uint256",
          "name": "decision",
          "type": "uint256"
        },
        {
          "internalType": "uint256",
          "name": "approveCount",
          "type": "uint256"
        },
        {
          "internalType": "uint256",
          "name": "denyCount",
          "type": "uint256"
        }
      ],
      "name": "inspectClaimRequest",
      "outputs": [
        {
          "internalType": "uint256[3]",
          "name": "",
          "type": "uint256[3]"
        }
      ],
      "stateMutability": "nonpayable",
      "type": "function"
    },
    {
      "inputs": [
        {
          "internalType": "address",
          "name": "newValidator",
          "type": "address"
        },
        {
          "internalType": "uint256",
          "name": "value",
          "type": "uint256"
        }
      ],
      "name": "addToCourt",
      "outputs": [],
      "stateMutability": "nonpayable",
      "type": "function"
    },
    {
      "inputs": [],
      "name": "vote",
      "outputs": [],
      "stateMutability": "nonpayable",
      "type": "function"
    }
  ],
  "bytecode": "0x608060405234801561001057600080fd5b50610ab2806100206000396000f3fe608060405234801561001057600080fd5b506004361061007d5760003560e01c8063632a9a521161005b578063632a9a5214610100578063dec66ecf1461010a578063f59a56e314610126578063fa52c7d8146101565761007d565b80630cef66ce146100825780631e526e45146100b25780633045960b146100d0575b600080fd5b61009c6004803603810190610097919061078e565b610186565b6040516100a991906108e1565b60405180910390f35b6100ba610347565b6040516100c791906108fc565b60405180910390f35b6100ea60048036038101906100e591906107f1565b61034d565b6040516100f791906108e1565b60405180910390f35b610108610629565b005b610124600480360381019061011f9190610752565b61062b565b005b610140600480360381019061013b9190610752565b61068a565b60405161014d91906108fc565b60405180910390f35b610170600480360381019061016b9190610729565b6106af565b60405161017d91906108fc565b60405180910390f35b61018e6106dd565b6000600160003373ffffffffffffffffffffffffffffffffffffffff1673ffffffffffffffffffffffffffffffffffffffff16815260200190815260200160002054116101da57600080fd5b6000546101e784846106c7565b106101f157600080fd5b600484141561020d578280610205906109d6565b935050610226565b6002841415610225578180610221906109d6565b9250505b5b6000805461023485856106c7565b1480156102415750828414155b1561026657828411156102575760049050610265565b8284101561026457600290505b5b5b61026e6106dd565b84816000600381106102a9577f4e487b7100000000000000000000000000000000000000000000000000000000600052603260045260246000fd5b60200201818152505083816001600381106102ed577f4e487b7100000000000000000000000000000000000000000000000000000000600052603260045260246000fd5b6020020181815250508181600260038110610331577f4e487b7100000000000000000000000000000000000000000000000000000000600052603260045260246000fd5b6020020181815250508092505050949350505050565b60005481565b6103556106dd565b6000600160003373ffffffffffffffffffffffffffffffffffffffff1673ffffffffffffffffffffffffffffffffffffffff16815260200190815260200160002054116103a157600080fd5b6000546103ae84846106c7565b106103b857600080fd5b6000600260003373ffffffffffffffffffffffffffffffffffffffff1673ffffffffffffffffffffffffffffffffffffffff168152602001908152602001600020600087815260200190815260200160002054905060048114158061041e575060028114155b61042757600080fd5b600485141561049957838061043b906109d6565b9450506004600260003373ffffffffffffffffffffffffffffffffffffffff1673ffffffffffffffffffffffffffffffffffffffff168152602001908152602001600020600088815260200190815260200160002081905550610507565b60028514156105065782806104ad906109d6565b93505060028060003373ffffffffffffffffffffffffffffffffffffffff1673ffffffffffffffffffffffffffffffffffffffff1681526020019081526020016000206000888152602001908152602001600020819055505b5b6000805461051586866106c7565b1480156105225750838514155b1561054757838511156105385760049050610546565b8385101561054557600290505b5b5b61054f6106dd565b858160006003811061058a577f4e487b7100000000000000000000000000000000000000000000000000000000600052603260045260246000fd5b60200201818152505084816001600381106105ce577f4e487b7100000000000000000000000000000000000000000000000000000000600052603260045260246000fd5b6020020181815250508181600260038110610612577f4e487b7100000000000000000000000000000000000000000000000000000000600052603260045260246000fd5b602002018181525050809350505050949350505050565b565b80600160008473ffffffffffffffffffffffffffffffffffffffff1673ffffffffffffffffffffffffffffffffffffffff16815260200190815260200160002081905550600080815480929190610681906109d6565b91905055505050565b6002602052816000526040600020602052806000526040600020600091509150505481565b60016020528060005260406000206000915090505481565b600081836106d59190610944565b905092915050565b6040518060600160405280600390602082028036833780820191505090505090565b60008135905061070e81610a4e565b92915050565b60008135905061072381610a65565b92915050565b60006020828403121561073b57600080fd5b6000610749848285016106ff565b91505092915050565b6000806040838503121561076557600080fd5b6000610773858286016106ff565b925050602061078485828601610714565b9150509250929050565b600080600080608085870312156107a457600080fd5b60006107b2878288016106ff565b94505060206107c387828801610714565b93505060406107d487828801610714565b92505060606107e587828801610714565b91505092959194509250565b6000806000806080858703121561080757600080fd5b600061081587828801610714565b945050602061082687828801610714565b935050604061083787828801610714565b925050606061084887828801610714565b91505092959194509250565b600061086083836108c3565b60208301905092915050565b61087581610921565b61087f8184610939565b925061088a82610917565b8060005b838110156108bb5781516108a28782610854565b96506108ad8361092c565b92505060018101905061088e565b505050505050565b6108cc816109cc565b82525050565b6108db816109cc565b82525050565b60006060820190506108f6600083018461086c565b92915050565b600060208201905061091160008301846108d2565b92915050565b6000819050919050565b600060039050919050565b6000602082019050919050565b600081905092915050565b600061094f826109cc565b915061095a836109cc565b9250827fffffffffffffffffffffffffffffffffffffffffffffffffffffffffffffffff0382111561098f5761098e610a1f565b5b828201905092915050565b60006109a5826109ac565b9050919050565b600073ffffffffffffffffffffffffffffffffffffffff82169050919050565b6000819050919050565b60006109e1826109cc565b91507fffffffffffffffffffffffffffffffffffffffffffffffffffffffffffffffff821415610a1457610a13610a1f565b5b600182019050919050565b7f4e487b7100000000000000000000000000000000000000000000000000000000600052601160045260246000fd5b610a578161099a565b8114610a6257600080fd5b50565b610a6e816109cc565b8114610a7957600080fd5b5056fea2646970667358221220211537d36f52594855dc46254836ab9f2ec8acfa283e89701af0370a513ae91264736f6c63430008000033",
  "immutableReferences": {},
  "source": "pragma solidity ^0.8.0;\n\ncontract voteNvalidate{\n    uint public numOfValidators; \n    mapping(address=>uint)public validators; //Hashurance token holder addresses and validator's reputation.\n    mapping(address=>mapping(uint=>uint)) public validationRegister; //Used to avoid a prevent a validator from validating more than once.\n    //ClaimApplications[] claim applications\n    \n    function getTotalValidations(uint appr, uint deny)private pure returns(uint){\n        return appr + deny;\n    }\n\n    function inspect(\n        uint appId, \n        uint decision, \n        uint approveCount, \n        uint denyCount) public returns(uint[3] memory){\n        require(validators[msg.sender] > 0); //Makes sure only validators can inspect (i.e rank > 0).\n        require(getTotalValidations(approveCount, denyCount) < numOfValidators); //Checks if the form is still open for validations. Might promote to modifier. \n        \n        //Check if msg.sender has applied before.\n        uint preDecision = validationRegister[msg.sender][appId];\n        require(preDecision != 4 || preDecision != 2); //Hasnt inspected before.\n        \n        //Inspection\n        if(decision == 4){ //Approve.\n          approveCount++;\n          validationRegister[msg.sender][appId] = 4; // 1 = true\n        }else if(decision == 2){ //Reject.\n          denyCount++;\n          validationRegister[msg.sender][appId] = 2; // 2 = false\n        }\n\n        //Makes final decision.\n        uint finalDeci = 0;\n        if(getTotalValidations(approveCount, denyCount) == numOfValidators && approveCount != denyCount){ //If All validators has inspected and the results arent equal.\n          //Judge\n          if(approveCount > denyCount){ //Approval.\n              finalDeci = 4;\n            }else if(approveCount < denyCount){ //Rejection.\n              finalDeci = 2;\n            }\n        }\n        //Update return values.\n        uint[3] memory report;\n        report[0] = approveCount;\n        report[1] = denyCount;\n        report[2] = finalDeci;\n        return report;\n    }\n\n    function inspectClaimRequest(\n        address policyAddress, \n        uint decision, \n        uint approveCount, \n        uint denyCount) public returns(uint[3] memory){\n        require(validators[msg.sender] > 0); //Makes sure only validators can inspect (i.e rank > 0).\n        require(getTotalValidations(approveCount, denyCount) < numOfValidators); //Checks if the form is still open for validations. Might promote to modifier. \n        \n        //Check if msg.sender has applied before.\n\n        //Inspection\n        if(decision == 4){ //Approve.\n          approveCount++;\n          //validationRegister[msg.sender][appId] = 4; // 1 = true\n        }else if(decision == 2){ //Reject.\n          denyCount++;\n          //validationRegister[msg.sender][appId] = 2; // 2 = false\n        }\n\n        //Makes final decision.\n        uint finalDeci = 0;\n        if(getTotalValidations(approveCount, denyCount) == numOfValidators && approveCount != denyCount){ //If All validators has inspected and the results arent equal.\n          //Judge\n          if(approveCount > denyCount){ //Approval.\n              finalDeci = 4;\n            }else if(approveCount < denyCount){ //Rejection.\n              finalDeci = 2;\n            }\n        }\n        //Update return values.\n        uint[3] memory report;\n        report[0] = approveCount;\n        report[1] = denyCount;\n        report[2] = finalDeci;\n        return report;\n    }\n\n\n    //Adds a new validator to the validators hub.\n    function addToCourt(address newValidator, uint value)public{\n        //Validator's reputation = (Number of good inspection * 1000000) + Hashurance token balance. \n        //Number of good inspection = 0, for new applicants.\n        validators[newValidator] = value; //value \n        numOfValidators++;\n    }\n\n    function vote() public{\n\n    }\n}",
  "sourcePath": "/Users/temitopealabi/Documents/personal/blockchain_training/videos/web3/CryptoInsurance15_demo/contracts/_validators_hub.sol",
  "compiler": {
    "name": "solc",
    "version": "0.8.0+commit.c7dfd78e.Emscripten.clang"
  },
  "schemaVersion": "3.3.4",
  "updatedAt": "2021-04-15T13:28:21.015Z",
  "devdoc": {
    "kind": "dev",
    "methods": {},
    "version": 1
  },
  "userdoc": {
    "kind": "user",
    "methods": {},
    "version": 1
  }
}